{
  "_format": "hh-sol-artifact-1",
  "contractName": "ShinobiERC721",
  "sourceName": "contracts/Shinobi.sol",
  "abi": [
    {
      "inputs": [
        {
          "internalType": "string",
          "name": "_theBaseURI",
          "type": "string"
        },
        {
          "internalType": "string",
          "name": "_notRevealedURI",
          "type": "string"
        },
        {
          "internalType": "bytes32",
          "name": "_merkleRoot",
          "type": "bytes32"
        }
      ],
      "stateMutability": "nonpayable",
      "type": "constructor"
    },
    {
      "anonymous": false,
      "inputs": [
        {
          "indexed": true,
          "internalType": "address",
          "name": "owner",
          "type": "address"
        },
        {
          "indexed": true,
          "internalType": "address",
          "name": "approved",
          "type": "address"
        },
        {
          "indexed": true,
          "internalType": "uint256",
          "name": "tokenId",
          "type": "uint256"
        }
      ],
      "name": "Approval",
      "type": "event"
    },
    {
      "anonymous": false,
      "inputs": [
        {
          "indexed": true,
          "internalType": "address",
          "name": "owner",
          "type": "address"
        },
        {
          "indexed": true,
          "internalType": "address",
          "name": "operator",
          "type": "address"
        },
        {
          "indexed": false,
          "internalType": "bool",
          "name": "approved",
          "type": "bool"
        }
      ],
      "name": "ApprovalForAll",
      "type": "event"
    },
    {
      "anonymous": false,
      "inputs": [
        {
          "indexed": true,
          "internalType": "contract IERC20",
          "name": "token",
          "type": "address"
        },
        {
          "indexed": false,
          "internalType": "address",
          "name": "to",
          "type": "address"
        },
        {
          "indexed": false,
          "internalType": "uint256",
          "name": "amount",
          "type": "uint256"
        }
      ],
      "name": "ERC20PaymentReleased",
      "type": "event"
    },
    {
      "anonymous": false,
      "inputs": [
        {
          "indexed": true,
          "internalType": "address",
          "name": "previousOwner",
          "type": "address"
        },
        {
          "indexed": true,
          "internalType": "address",
          "name": "newOwner",
          "type": "address"
        }
      ],
      "name": "OwnershipTransferred",
      "type": "event"
    },
    {
      "anonymous": false,
      "inputs": [
        {
          "indexed": false,
          "internalType": "address",
          "name": "account",
          "type": "address"
        },
        {
          "indexed": false,
          "internalType": "uint256",
          "name": "shares",
          "type": "uint256"
        }
      ],
      "name": "PayeeAdded",
      "type": "event"
    },
    {
      "anonymous": false,
      "inputs": [
        {
          "indexed": false,
          "internalType": "address",
          "name": "from",
          "type": "address"
        },
        {
          "indexed": false,
          "internalType": "uint256",
          "name": "amount",
          "type": "uint256"
        }
      ],
      "name": "PaymentReceived",
      "type": "event"
    },
    {
      "anonymous": false,
      "inputs": [
        {
          "indexed": false,
          "internalType": "address",
          "name": "to",
          "type": "address"
        },
        {
          "indexed": false,
          "internalType": "uint256",
          "name": "amount",
          "type": "uint256"
        }
      ],
      "name": "PaymentReleased",
      "type": "event"
    },
    {
      "anonymous": false,
      "inputs": [
        {
          "indexed": true,
          "internalType": "address",
          "name": "from",
          "type": "address"
        },
        {
          "indexed": true,
          "internalType": "address",
          "name": "to",
          "type": "address"
        },
        {
          "indexed": true,
          "internalType": "uint256",
          "name": "tokenId",
          "type": "uint256"
        }
      ],
      "name": "Transfer",
      "type": "event"
    },
    {
      "inputs": [],
      "name": "MAX_SUPPLY",
      "outputs": [
        {
          "internalType": "uint256",
          "name": "",
          "type": "uint256"
        }
      ],
      "stateMutability": "view",
      "type": "function"
    },
    {
      "inputs": [
        {
          "internalType": "address",
          "name": "to",
          "type": "address"
        },
        {
          "internalType": "uint256",
          "name": "tokenId",
          "type": "uint256"
        }
      ],
      "name": "approve",
      "outputs": [],
      "stateMutability": "nonpayable",
      "type": "function"
    },
    {
      "inputs": [
        {
          "internalType": "address",
          "name": "owner",
          "type": "address"
        }
      ],
      "name": "balanceOf",
      "outputs": [
        {
          "internalType": "uint256",
          "name": "",
          "type": "uint256"
        }
      ],
      "stateMutability": "view",
      "type": "function"
    },
    {
      "inputs": [],
      "name": "baseExtension",
      "outputs": [
        {
          "internalType": "string",
          "name": "",
          "type": "string"
        }
      ],
      "stateMutability": "view",
      "type": "function"
    },
    {
      "inputs": [],
      "name": "baseURI",
      "outputs": [
        {
          "internalType": "string",
          "name": "",
          "type": "string"
        }
      ],
      "stateMutability": "view",
      "type": "function"
    },
    {
      "inputs": [
        {
          "internalType": "uint256",
          "name": "_maxMintAllowed",
          "type": "uint256"
        }
      ],
      "name": "changeMaxMintAllowed",
      "outputs": [],
      "stateMutability": "nonpayable",
      "type": "function"
    },
    {
      "inputs": [
        {
          "internalType": "bytes32",
          "name": "_newMerkleRoot",
          "type": "bytes32"
        }
      ],
      "name": "changeMerkleRoot",
      "outputs": [],
      "stateMutability": "nonpayable",
      "type": "function"
    },
    {
      "inputs": [
        {
          "internalType": "uint256",
          "name": "_pricePresale",
          "type": "uint256"
        }
      ],
      "name": "changePricePresale",
      "outputs": [],
      "stateMutability": "nonpayable",
      "type": "function"
    },
    {
      "inputs": [
        {
          "internalType": "uint256",
          "name": "_priceSale",
          "type": "uint256"
        }
      ],
      "name": "changePriceSale",
      "outputs": [],
      "stateMutability": "nonpayable",
      "type": "function"
    },
    {
      "inputs": [
        {
          "internalType": "uint256",
          "name": "tokenId",
          "type": "uint256"
        }
      ],
      "name": "getApproved",
      "outputs": [
        {
          "internalType": "address",
          "name": "",
          "type": "address"
        }
      ],
      "stateMutability": "view",
      "type": "function"
    },
    {
      "inputs": [
        {
          "internalType": "address",
          "name": "_account",
          "type": "address"
        }
      ],
      "name": "gift",
      "outputs": [],
      "stateMutability": "nonpayable",
      "type": "function"
    },
    {
      "inputs": [
        {
          "internalType": "address",
          "name": "owner",
          "type": "address"
        },
        {
          "internalType": "address",
          "name": "operator",
          "type": "address"
        }
      ],
      "name": "isApprovedForAll",
      "outputs": [
        {
          "internalType": "bool",
          "name": "",
          "type": "bool"
        }
      ],
      "stateMutability": "view",
      "type": "function"
    },
    {
      "inputs": [],
      "name": "max_mint_allowed",
      "outputs": [
        {
          "internalType": "uint256",
          "name": "",
          "type": "uint256"
        }
      ],
      "stateMutability": "view",
      "type": "function"
    },
    {
      "inputs": [],
      "name": "merkleRoot",
      "outputs": [
        {
          "internalType": "bytes32",
          "name": "",
          "type": "bytes32"
        }
      ],
      "stateMutability": "view",
      "type": "function"
    },
    {
      "inputs": [],
      "name": "name",
      "outputs": [
        {
          "internalType": "string",
          "name": "",
          "type": "string"
        }
      ],
      "stateMutability": "view",
      "type": "function"
    },
    {
      "inputs": [],
      "name": "notRevealedURI",
      "outputs": [
        {
          "internalType": "string",
          "name": "",
          "type": "string"
        }
      ],
      "stateMutability": "view",
      "type": "function"
    },
    {
      "inputs": [],
      "name": "owner",
      "outputs": [
        {
          "internalType": "address",
          "name": "",
          "type": "address"
        }
      ],
      "stateMutability": "view",
      "type": "function"
    },
    {
      "inputs": [
        {
          "internalType": "uint256",
          "name": "tokenId",
          "type": "uint256"
        }
      ],
      "name": "ownerOf",
      "outputs": [
        {
          "internalType": "address",
          "name": "",
          "type": "address"
        }
      ],
      "stateMutability": "view",
      "type": "function"
    },
    {
      "inputs": [],
      "name": "paused",
      "outputs": [
        {
          "internalType": "bool",
          "name": "",
          "type": "bool"
        }
      ],
      "stateMutability": "view",
      "type": "function"
    },
    {
      "inputs": [
        {
          "internalType": "uint256",
          "name": "index",
          "type": "uint256"
        }
      ],
      "name": "payee",
      "outputs": [
        {
          "internalType": "address",
          "name": "",
          "type": "address"
        }
      ],
      "stateMutability": "view",
      "type": "function"
    },
    {
      "inputs": [],
      "name": "pricePresale",
      "outputs": [
        {
          "internalType": "uint256",
          "name": "",
          "type": "uint256"
        }
      ],
      "stateMutability": "view",
      "type": "function"
    },
    {
      "inputs": [],
      "name": "priceSale",
      "outputs": [
        {
          "internalType": "uint256",
          "name": "",
          "type": "uint256"
        }
      ],
      "stateMutability": "view",
      "type": "function"
    },
    {
      "inputs": [
        {
          "internalType": "address",
          "name": "_account",
          "type": "address"
        },
        {
          "internalType": "bytes32[]",
          "name": "_proof",
          "type": "bytes32[]"
        }
      ],
      "name": "privateSaleMint",
      "outputs": [],
      "stateMutability": "payable",
      "type": "function"
    },
    {
      "inputs": [
        {
          "internalType": "uint256",
          "name": "_ammount",
          "type": "uint256"
        }
      ],
      "name": "publicSaleMint",
      "outputs": [],
      "stateMutability": "payable",
      "type": "function"
    },
    {
      "inputs": [
        {
          "internalType": "address payable",
          "name": "account",
          "type": "address"
        }
      ],
      "name": "release",
      "outputs": [],
      "stateMutability": "nonpayable",
      "type": "function"
    },
    {
      "inputs": [
        {
          "internalType": "contract IERC20",
          "name": "token",
          "type": "address"
        },
        {
          "internalType": "address",
          "name": "account",
          "type": "address"
        }
      ],
      "name": "release",
      "outputs": [],
      "stateMutability": "nonpayable",
      "type": "function"
    },
    {
      "inputs": [
        {
          "internalType": "contract IERC20",
          "name": "token",
          "type": "address"
        },
        {
          "internalType": "address",
          "name": "account",
          "type": "address"
        }
      ],
      "name": "released",
      "outputs": [
        {
          "internalType": "uint256",
          "name": "",
          "type": "uint256"
        }
      ],
      "stateMutability": "view",
      "type": "function"
    },
    {
      "inputs": [
        {
          "internalType": "address",
          "name": "account",
          "type": "address"
        }
      ],
      "name": "released",
      "outputs": [
        {
          "internalType": "uint256",
          "name": "",
          "type": "uint256"
        }
      ],
      "stateMutability": "view",
      "type": "function"
    },
    {
      "inputs": [],
      "name": "renounceOwnership",
      "outputs": [],
      "stateMutability": "nonpayable",
      "type": "function"
    },
    {
      "inputs": [],
      "name": "reveal",
      "outputs": [],
      "stateMutability": "nonpayable",
      "type": "function"
    },
    {
      "inputs": [],
      "name": "revealed",
      "outputs": [
        {
          "internalType": "bool",
          "name": "",
          "type": "bool"
        }
      ],
      "stateMutability": "view",
      "type": "function"
    },
    {
      "inputs": [
        {
          "internalType": "address",
          "name": "from",
          "type": "address"
        },
        {
          "internalType": "address",
          "name": "to",
          "type": "address"
        },
        {
          "internalType": "uint256",
          "name": "tokenId",
          "type": "uint256"
        }
      ],
      "name": "safeTransferFrom",
      "outputs": [],
      "stateMutability": "nonpayable",
      "type": "function"
    },
    {
      "inputs": [
        {
          "internalType": "address",
          "name": "from",
          "type": "address"
        },
        {
          "internalType": "address",
          "name": "to",
          "type": "address"
        },
        {
          "internalType": "uint256",
          "name": "tokenId",
          "type": "uint256"
        },
        {
          "internalType": "bytes",
          "name": "_data",
          "type": "bytes"
        }
      ],
      "name": "safeTransferFrom",
      "outputs": [],
      "stateMutability": "nonpayable",
      "type": "function"
    },
    {
      "inputs": [],
      "name": "sellingStep",
      "outputs": [
        {
          "internalType": "enum ShinobiERC721.Steps",
          "name": "",
          "type": "uint8"
        }
      ],
      "stateMutability": "view",
      "type": "function"
    },
    {
      "inputs": [
        {
          "internalType": "address",
          "name": "operator",
          "type": "address"
        },
        {
          "internalType": "bool",
          "name": "approved",
          "type": "bool"
        }
      ],
      "name": "setApprovalForAll",
      "outputs": [],
      "stateMutability": "nonpayable",
      "type": "function"
    },
    {
      "inputs": [
        {
          "internalType": "string",
          "name": "_baseExtension",
          "type": "string"
        }
      ],
      "name": "setBaseExtension",
      "outputs": [],
      "stateMutability": "nonpayable",
      "type": "function"
    },
    {
      "inputs": [
        {
          "internalType": "string",
          "name": "_newBaseURI",
          "type": "string"
        }
      ],
      "name": "setBaseUri",
      "outputs": [],
      "stateMutability": "nonpayable",
      "type": "function"
    },
    {
      "inputs": [
        {
          "internalType": "string",
          "name": "_notRevealedURI",
          "type": "string"
        }
      ],
      "name": "setNotRevealURI",
      "outputs": [],
      "stateMutability": "nonpayable",
      "type": "function"
    },
    {
      "inputs": [
        {
          "internalType": "bool",
          "name": "_paused",
          "type": "bool"
        }
      ],
      "name": "setPaused",
      "outputs": [],
      "stateMutability": "nonpayable",
      "type": "function"
    },
    {
      "inputs": [],
      "name": "setUpPresale",
      "outputs": [],
      "stateMutability": "nonpayable",
      "type": "function"
    },
    {
      "inputs": [],
      "name": "setUpSale",
      "outputs": [],
      "stateMutability": "nonpayable",
      "type": "function"
    },
    {
      "inputs": [
        {
          "internalType": "address",
          "name": "account",
          "type": "address"
        }
      ],
      "name": "shares",
      "outputs": [
        {
          "internalType": "uint256",
          "name": "",
          "type": "uint256"
        }
      ],
      "stateMutability": "view",
      "type": "function"
    },
    {
      "inputs": [
        {
          "internalType": "bytes4",
          "name": "interfaceId",
          "type": "bytes4"
        }
      ],
      "name": "supportsInterface",
      "outputs": [
        {
          "internalType": "bool",
          "name": "",
          "type": "bool"
        }
      ],
      "stateMutability": "view",
      "type": "function"
    },
    {
      "inputs": [],
      "name": "symbol",
      "outputs": [
        {
          "internalType": "string",
          "name": "",
          "type": "string"
        }
      ],
      "stateMutability": "view",
      "type": "function"
    },
    {
      "inputs": [
        {
          "internalType": "uint256",
          "name": "index",
          "type": "uint256"
        }
      ],
      "name": "tokenByIndex",
      "outputs": [
        {
          "internalType": "uint256",
          "name": "",
          "type": "uint256"
        }
      ],
      "stateMutability": "view",
      "type": "function"
    },
    {
      "inputs": [
        {
          "internalType": "address",
          "name": "owner",
          "type": "address"
        },
        {
          "internalType": "uint256",
          "name": "index",
          "type": "uint256"
        }
      ],
      "name": "tokenOfOwnerByIndex",
      "outputs": [
        {
          "internalType": "uint256",
          "name": "",
          "type": "uint256"
        }
      ],
      "stateMutability": "view",
      "type": "function"
    },
    {
      "inputs": [
        {
          "internalType": "uint256",
          "name": "_nftId",
          "type": "uint256"
        }
      ],
      "name": "tokenURI",
      "outputs": [
        {
          "internalType": "string",
          "name": "",
          "type": "string"
        }
      ],
      "stateMutability": "view",
      "type": "function"
    },
    {
      "inputs": [
        {
          "internalType": "contract IERC20",
          "name": "token",
          "type": "address"
        }
      ],
      "name": "totalReleased",
      "outputs": [
        {
          "internalType": "uint256",
          "name": "",
          "type": "uint256"
        }
      ],
      "stateMutability": "view",
      "type": "function"
    },
    {
      "inputs": [],
      "name": "totalReleased",
      "outputs": [
        {
          "internalType": "uint256",
          "name": "",
          "type": "uint256"
        }
      ],
      "stateMutability": "view",
      "type": "function"
    },
    {
      "inputs": [],
      "name": "totalShares",
      "outputs": [
        {
          "internalType": "uint256",
          "name": "",
          "type": "uint256"
        }
      ],
      "stateMutability": "view",
      "type": "function"
    },
    {
      "inputs": [],
      "name": "totalSupply",
      "outputs": [
        {
          "internalType": "uint256",
          "name": "",
          "type": "uint256"
        }
      ],
      "stateMutability": "view",
      "type": "function"
    },
    {
      "inputs": [
        {
          "internalType": "address",
          "name": "from",
          "type": "address"
        },
        {
          "internalType": "address",
          "name": "to",
          "type": "address"
        },
        {
          "internalType": "uint256",
          "name": "tokenId",
          "type": "uint256"
        }
      ],
      "name": "transferFrom",
      "outputs": [],
      "stateMutability": "nonpayable",
      "type": "function"
    },
    {
      "inputs": [
        {
          "internalType": "address",
          "name": "newOwner",
          "type": "address"
        }
      ],
      "name": "transferOwnership",
      "outputs": [],
      "stateMutability": "nonpayable",
      "type": "function"
    },
    {
      "stateMutability": "payable",
      "type": "receive"
    }
  ],
  "bytecode": "0x600260155567016345785d8a00006016556702c68af0bb14000060175560c06040526005608081905264173539b7b760d91b60a09081526200004591601a919062000744565b50601b805461ffff1916905560408051608081018252730e055e8db176e8d878982f7ee5fbb33d13f791e38152739317c997cf9c949e9b8a5194da9f2f73f067658c60208201527358c5bf4883a128fdda83e4b052f110c416d964159181019190915273401c0335d7302f3403f5a4711056e5224a250e666060820152620000d290601d906004620007d3565b5060408051608081018252600a8152601e602082018190529181018290526060810182905262000105919060046200082b565b503480156200011357600080fd5b506040516200410838038062004108833981016040819052620001369162000938565b601d8054806020026020016040519081016040528092919081815260200182805480156200018e57602002820191906000526020600020905b81546001600160a01b031681526001909101906020018083116200016f575b5050505050601e805480602002602001604051908101604052809291908181526020018280548015620001e157602002820191906000526020600020905b815481526020019060010190808311620001cc575b505060408051808201825260078152665368696e6f626960c81b6020808301918252835180850190945260058452645348494e4f60d81b9084015281519195509193506200023492506000919062000744565b5080516200024a90600190602084019062000744565b5050508051825114620002bf5760405162461bcd60e51b815260206004820152603260248201527f5061796d656e7453706c69747465723a2070617965657320616e6420736861726044820152710cae640d8cadccee8d040dad2e6dac2e8c6d60731b60648201526084015b60405180910390fd5b6000825111620003125760405162461bcd60e51b815260206004820152601a60248201527f5061796d656e7453706c69747465723a206e6f207061796565730000000000006044820152606401620002b6565b60005b82518110156200039657620003818382815181106200034457634e487b7160e01b600052603260045260246000fd5b60200260200101518383815181106200036d57634e487b7160e01b600052603260045260246000fd5b60200260200101516200042660201b60201c565b806200038d8162000a00565b91505062000315565b505050620003b3620003ad6200061460201b60201c565b62000618565b6001601281905550620003d260146200066a60201b62001e081760201c565b620003dd3362000673565b601b805462ff000019166202000017905582516200040390601890602086019062000744565b5081516200041990601990602085019062000744565b506013555062000a4a9050565b6001600160a01b038216620004935760405162461bcd60e51b815260206004820152602c60248201527f5061796d656e7453706c69747465723a206163636f756e74206973207468652060448201526b7a65726f206164647265737360a01b6064820152608401620002b6565b60008111620004e55760405162461bcd60e51b815260206004820152601d60248201527f5061796d656e7453706c69747465723a207368617265732061726520300000006044820152606401620002b6565b6001600160a01b0382166000908152600c602052604090205415620005615760405162461bcd60e51b815260206004820152602b60248201527f5061796d656e7453706c69747465723a206163636f756e7420616c726561647960448201526a206861732073686172657360a81b6064820152608401620002b6565b600e8054600181019091557fbb7b4a454dc3493923482f07822329ed19e8244eff582cc204f8554c3620c3fd0180546001600160a01b0319166001600160a01b0384169081179091556000908152600c60205260409020819055600a54620005cb908290620009a8565b600a55604080516001600160a01b0384168152602081018390527f40c340f65e17194d14ddddb073d3c9f888e3cb52b5aae0c6c7706b4fbc905fac910160405180910390a15050565b3390565b601180546001600160a01b038381166001600160a01b0319831681179093556040519116919082907f8be0079c531659141344cd1fd0a4f28419497f9722a3daafe3b4186f6b6457e090600090a35050565b80546001019055565b6011546001600160a01b03163314620006cf5760405162461bcd60e51b815260206004820181905260248201527f4f776e61626c653a2063616c6c6572206973206e6f7420746865206f776e65726044820152606401620002b6565b6001600160a01b038116620007365760405162461bcd60e51b815260206004820152602660248201527f4f776e61626c653a206e6577206f776e657220697320746865207a65726f206160448201526564647265737360d01b6064820152608401620002b6565b620007418162000618565b50565b8280546200075290620009c3565b90600052602060002090601f016020900481019282620007765760008555620007c1565b82601f106200079157805160ff1916838001178555620007c1565b82800160010185558215620007c1579182015b82811115620007c1578251825591602001919060010190620007a4565b50620007cf9291506200086e565b5090565b828054828255906000526020600020908101928215620007c1579160200282015b82811115620007c157825182546001600160a01b0319166001600160a01b03909116178255602090920191600190910190620007f4565b828054828255906000526020600020908101928215620007c1579160200282015b82811115620007c1578251829060ff169055916020019190600101906200084c565b5b80821115620007cf57600081556001016200086f565b600082601f83011262000896578081fd5b81516001600160401b0380821115620008b357620008b362000a34565b604051601f8301601f19908116603f01168101908282118183101715620008de57620008de62000a34565b81604052838152602092508683858801011115620008fa578485fd5b8491505b838210156200091d5785820183015181830184015290820190620008fe565b838211156200092e57848385830101525b9695505050505050565b6000806000606084860312156200094d578283fd5b83516001600160401b038082111562000964578485fd5b620009728783880162000885565b9450602086015191508082111562000988578384fd5b50620009978682870162000885565b925050604084015190509250925092565b60008219821115620009be57620009be62000a1e565b500190565b600181811c90821680620009d857607f821691505b60208210811415620009fa57634e487b7160e01b600052602260045260246000fd5b50919050565b600060001982141562000a175762000a1762000a1e565b5060010190565b634e487b7160e01b600052601160045260246000fd5b634e487b7160e01b600052604160045260246000fd5b6136ae8062000a5a6000396000f3fe60806040526004361061031e5760003560e01c806370a08231116101ab578063b3ab66b0116100f7578063ce7c2ac211610095578063e33b7de31161006f578063e33b7de314610979578063e985e9c51461098e578063ebcea3db146109d7578063f2fde38b146109f757600080fd5b8063ce7c2ac2146108ed578063d79779b214610923578063da3ef23f1461095957600080fd5b8063c6682862116100d1578063c66828621461086b578063c87b56dd14610880578063cbccefb2146108a0578063cbfc4bce146108cd57600080fd5b8063b3ab66b014610822578063b88d4fde14610835578063ba0c60c91461085557600080fd5b80639147dd1b11610164578063a0bcfc7f1161013e578063a0bcfc7f146107ba578063a12cccef146107da578063a22cb465146107ed578063a475b5dd1461080d57600080fd5b80639147dd1b1461075957806395d89b411461076f5780639852595c1461078457600080fd5b806370a08231146106bb578063715018a6146106db57806372250380146106f057806381a7927e146107055780638b83209b1461071b5780638da5cb5b1461073b57600080fd5b806332cb6b0c1161026a5780634f6ccce7116102235780635accac99116101fd5780635accac99146106475780635c975abb146106675780636352211e146106865780636c0360eb146106a657600080fd5b80634f6ccce7146105ed578063518302271461060d578063549df2df1461062757600080fd5b806332cb6b0c1461051c5780633a98ef39146105325780633f5fbad014610547578063406072a91461056757806342842e0e146105ad57806348b75044146105cd57600080fd5b806318160ddd116102d75780631f2898c3116102b15780631f2898c3146104b157806323b872dd146104c65780632eb4a7ab146104e65780632f745c59146104fc57600080fd5b806318160ddd1461045257806319165587146104715780631dcfab391461049157600080fd5b806301ffc9a71461036c57806306fdde03146103a1578063081812fc146103c3578063095ea7b3146103fb57806315c316fc1461041d57806316c38b3c1461043257600080fd5b36610367577f6ef95f06320e7a25a04a175ca677b7052bdd97131872c2192525a629f51be77033604080516001600160a01b0390921682523460208301520160405180910390a1005b600080fd5b34801561037857600080fd5b5061038c610387366004613172565b610a17565b60405190151581526020015b60405180910390f35b3480156103ad57600080fd5b506103b6610a42565b6040516103989190613389565b3480156103cf57600080fd5b506103e36103de36600461315a565b610ad4565b6040516001600160a01b039091168152602001610398565b34801561040757600080fd5b5061041b6104163660046130f7565b610b6e565b005b34801561042957600080fd5b5061041b610c84565b34801561043e57600080fd5b5061041b61044d366004613122565b610cc9565b34801561045e57600080fd5b506008545b604051908152602001610398565b34801561047d57600080fd5b5061041b61048c366004612f36565b610d0d565b34801561049d57600080fd5b5061041b6104ac36600461315a565b610e3b565b3480156104bd57600080fd5b5061041b610e6a565b3480156104d257600080fd5b5061041b6104e1366004612f8a565b610f30565b3480156104f257600080fd5b5061046360135481565b34801561050857600080fd5b506104636105173660046130f7565b610f61565b34801561052857600080fd5b506104636103e881565b34801561053e57600080fd5b50600a54610463565b34801561055357600080fd5b5061041b61056236600461315a565b610ff7565b34801561057357600080fd5b506104636105823660046131aa565b6001600160a01b03918216600090815260106020908152604080832093909416825291909152205490565b3480156105b957600080fd5b5061041b6105c8366004612f8a565b611026565b3480156105d957600080fd5b5061041b6105e83660046131aa565b611041565b3480156105f957600080fd5b5061046361060836600461315a565b611229565b34801561061957600080fd5b50601b5461038c9060ff1681565b34801561063357600080fd5b5061041b61064236600461315a565b6112ca565b34801561065357600080fd5b5061041b6106623660046131bc565b6112f9565b34801561067357600080fd5b50601b5461038c90610100900460ff1681565b34801561069257600080fd5b506103e36106a136600461315a565b61133a565b3480156106b257600080fd5b506103b66113b1565b3480156106c757600080fd5b506104636106d6366004612f36565b61143f565b3480156106e757600080fd5b5061041b6114c6565b3480156106fc57600080fd5b506103b66114fc565b34801561071157600080fd5b5061046360175481565b34801561072757600080fd5b506103e361073636600461315a565b611509565b34801561074757600080fd5b506011546001600160a01b03166103e3565b34801561076557600080fd5b5061046360165481565b34801561077b57600080fd5b506103b6611547565b34801561079057600080fd5b5061046361079f366004612f36565b6001600160a01b03166000908152600d602052604090205490565b3480156107c657600080fd5b5061041b6107d53660046131bc565b611556565b61041b6107e8366004613047565b611593565b3480156107f957600080fd5b5061041b6108083660046130ca565b6117ae565b34801561081957600080fd5b5061041b6117b9565b61041b61083036600461315a565b6117f2565b34801561084157600080fd5b5061041b610850366004612fca565b611acd565b34801561086157600080fd5b5061046360155481565b34801561087757600080fd5b506103b6611b05565b34801561088c57600080fd5b506103b661089b36600461315a565b611b12565b3480156108ac57600080fd5b50601b546108c09062010000900460ff1681565b6040516103989190613361565b3480156108d957600080fd5b5061041b6108e8366004612f36565b611c74565b3480156108f957600080fd5b50610463610908366004612f36565b6001600160a01b03166000908152600c602052604090205490565b34801561092f57600080fd5b5061046361093e366004612f36565b6001600160a01b03166000908152600f602052604090205490565b34801561096557600080fd5b5061041b6109743660046131bc565b611d01565b34801561098557600080fd5b50600b54610463565b34801561099a57600080fd5b5061038c6109a9366004612f52565b6001600160a01b03918216600090815260056020908152604080832093909416825291909152205460ff1690565b3480156109e357600080fd5b5061041b6109f236600461315a565b611d3e565b348015610a0357600080fd5b5061041b610a12366004612f36565b611d6d565b60006001600160e01b0319821663780e9d6360e01b1480610a3c5750610a3c82611e11565b92915050565b606060008054610a5190613593565b80601f0160208091040260200160405190810160405280929190818152602001828054610a7d90613593565b8015610aca5780601f10610a9f57610100808354040283529160200191610aca565b820191906000526020600020905b815481529060010190602001808311610aad57829003601f168201915b5050505050905090565b6000818152600260205260408120546001600160a01b0316610b525760405162461bcd60e51b815260206004820152602c60248201527f4552433732313a20617070726f76656420717565727920666f72206e6f6e657860448201526b34b9ba32b73a103a37b5b2b760a11b60648201526084015b60405180910390fd5b506000908152600460205260409020546001600160a01b031690565b6000610b798261133a565b9050806001600160a01b0316836001600160a01b03161415610be75760405162461bcd60e51b815260206004820152602160248201527f4552433732313a20617070726f76616c20746f2063757272656e74206f776e656044820152603960f91b6064820152608401610b49565b336001600160a01b0382161480610c035750610c0381336109a9565b610c755760405162461bcd60e51b815260206004820152603860248201527f4552433732313a20617070726f76652063616c6c6572206973206e6f74206f7760448201527f6e6572206e6f7220617070726f76656420666f7220616c6c00000000000000006064820152608401610b49565b610c7f8383611e61565b505050565b6011546001600160a01b03163314610cae5760405162461bcd60e51b8152600401610b499061347f565b601b80546001919062ff0000191662010000835b0217905550565b6011546001600160a01b03163314610cf35760405162461bcd60e51b8152600401610b499061347f565b601b80549115156101000261ff0019909216919091179055565b6001600160a01b0381166000908152600c6020526040902054610d425760405162461bcd60e51b8152600401610b49906133ee565b6000610d4d600b5490565b610d579047613505565b90506000610d848383610d7f866001600160a01b03166000908152600d602052604090205490565b611ecf565b905080610da35760405162461bcd60e51b8152600401610b4990613434565b6001600160a01b0383166000908152600d602052604081208054839290610dcb908490613505565b9250508190555080600b6000828254610de49190613505565b90915550610df490508382611f15565b604080516001600160a01b0385168152602081018390527fdf20fd1e76bc69d672e4814fafb2c449bba3a5369d8359adf9e05e6fde87b056910160405180910390a1505050565b6011546001600160a01b03163314610e655760405162461bcd60e51b8152600401610b499061347f565b601755565b6011546001600160a01b03163314610e945760405162461bcd60e51b8152600401610b499061347f565b6001601b5462010000900460ff166004811115610ec157634e487b7160e01b600052602160045260246000fd5b14610f185760405162461bcd60e51b815260206004820152602160248201527f4669727374207468652070726573616c652c207468656e207468652073616c656044820152601760f91b6064820152608401610b49565b601b80546002919062ff000019166201000083610cc2565b610f3a338261202e565b610f565760405162461bcd60e51b8152600401610b49906134b4565b610c7f838383612124565b6000610f6c8361143f565b8210610fce5760405162461bcd60e51b815260206004820152602b60248201527f455243373231456e756d657261626c653a206f776e657220696e646578206f7560448201526a74206f6620626f756e647360a81b6064820152608401610b49565b506001600160a01b03919091166000908152600660209081526040808320938352929052205490565b6011546001600160a01b031633146110215760405162461bcd60e51b8152600401610b499061347f565b601655565b610c7f83838360405180602001604052806000815250611acd565b6001600160a01b0381166000908152600c60205260409020546110765760405162461bcd60e51b8152600401610b49906133ee565b6001600160a01b0382166000908152600f60205260408120546040516370a0823160e01b81523060048201526001600160a01b038516906370a082319060240160206040518083038186803b1580156110ce57600080fd5b505afa1580156110e2573d6000803e3d6000fd5b505050506040513d601f19601f820116820180604052508101906111069190613202565b6111109190613505565b905060006111498383610d7f87876001600160a01b03918216600090815260106020908152604080832093909416825291909152205490565b9050806111685760405162461bcd60e51b8152600401610b4990613434565b6001600160a01b0380851660009081526010602090815260408083209387168352929052908120805483929061119f908490613505565b90915550506001600160a01b0384166000908152600f6020526040812080548392906111cc908490613505565b909155506111dd90508484836122cb565b604080516001600160a01b038581168252602082018490528616917f3be5b7a71e84ed12875d241991c70855ac5817d847039e17a9d895c1ceb0f18a910160405180910390a250505050565b600061123460085490565b82106112975760405162461bcd60e51b815260206004820152602c60248201527f455243373231456e756d657261626c653a20676c6f62616c20696e646578206f60448201526b7574206f6620626f756e647360a01b6064820152608401610b49565b600882815481106112b857634e487b7160e01b600052603260045260246000fd5b90600052602060002001549050919050565b6011546001600160a01b031633146112f45760405162461bcd60e51b8152600401610b499061347f565b601555565b6011546001600160a01b031633146113235760405162461bcd60e51b8152600401610b499061347f565b8051611336906019906020840190612e27565b5050565b6000818152600260205260408120546001600160a01b031680610a3c5760405162461bcd60e51b815260206004820152602960248201527f4552433732313a206f776e657220717565727920666f72206e6f6e657869737460448201526832b73a103a37b5b2b760b91b6064820152608401610b49565b601880546113be90613593565b80601f01602080910402602001604051908101604052809291908181526020018280546113ea90613593565b80156114375780601f1061140c57610100808354040283529160200191611437565b820191906000526020600020905b81548152906001019060200180831161141a57829003601f168201915b505050505081565b60006001600160a01b0382166114aa5760405162461bcd60e51b815260206004820152602a60248201527f4552433732313a2062616c616e636520717565727920666f7220746865207a65604482015269726f206164647265737360b01b6064820152608401610b49565b506001600160a01b031660009081526003602052604090205490565b6011546001600160a01b031633146114f05760405162461bcd60e51b8152600401610b499061347f565b6114fa600061231d565b565b601980546113be90613593565b6000600e828154811061152c57634e487b7160e01b600052603260045260246000fd5b6000918252602090912001546001600160a01b031692915050565b606060018054610a5190613593565b6011546001600160a01b031633146115805760405162461bcd60e51b8152600401610b499061347f565b8051611336906018906020840190612e27565b600260125414156115e65760405162461bcd60e51b815260206004820152601f60248201527f5265656e7472616e637947756172643a207265656e7472616e742063616c6c006044820152606401610b49565b60026012556001601b5462010000900460ff16600481111561161857634e487b7160e01b600052602160045260246000fd5b146116655760405162461bcd60e51b815260206004820152601c60248201527f50726573616c6520686173206e6f742073746172746564207965742e000000006044820152606401610b49565b6001600160a01b0383166000908152601c60205260409020546001116116db5760405162461bcd60e51b815260206004820152602560248201527f596f752063616e206f6e6c79206765742031204e4654206f6e207468652050726044820152646573616c6560d81b6064820152608401610b49565b6116e683838361236f565b6117295760405162461bcd60e51b8152602060048201526014602482015273139bdd081bdb881d1a19481dda1a5d195b1a5cdd60621b6044820152606401610b49565b60165434818110159061173b906123f0565b906117595760405162461bcd60e51b8152600401610b499190613389565b506001600160a01b0384166000908152601c6020526040812080549161177e836135ce565b91905055506117958461179060145490565b61250a565b6117a3601480546001019055565b505060016012555050565b611336338383612524565b6011546001600160a01b031633146117e35760405162461bcd60e51b8152600401610b499061347f565b601b805460ff19166001179055565b600260125414156118455760405162461bcd60e51b815260206004820152601f60248201527f5265656e7472616e637947756172643a207265656e7472616e742063616c6c006044820152606401610b49565b6002601255600061185560085490565b6017549091506003601b5462010000900460ff16600481111561188857634e487b7160e01b600052602160045260246000fd5b14156118cd5760405162461bcd60e51b815260206004820152601460248201527329b7b9393c961037379027232a39903632b33a1760611b6044820152606401610b49565b6002601b5462010000900460ff1660048111156118fa57634e487b7160e01b600052602160045260246000fd5b146119475760405162461bcd60e51b815260206004820181905260248201527f536f7272792c2073616c6520686173206e6f742073746172746564207965742e6044820152606401610b49565b6119518382613531565b34101561195d346123f0565b9061197b5760405162461bcd60e51b8152600401610b499190613389565b506015548311156119d85760405162461bcd60e51b815260206004820152602160248201527f596f752063616e2774206d696e74206d6f7265207468616e203220746f6b656e6044820152607360f81b6064820152608401610b49565b6103e86119e58484613505565b1115611a595760405162461bcd60e51b815260206004820152603860248201527f53616c6520697320616c6d6f737420646f6e6520616e6420776520646f6e277460448201527f206861766520656e6f75676874204e465473206c6566742e00000000000000006064820152608401610b49565b336000908152601c602052604081208054859290611a78908490613505565b909155506103e89050611a8b8484613505565b1415611aa357601b805462ff00001916620300001790555b60015b8381116117a357611abb336117908386613505565b80611ac5816135ce565b915050611aa6565b611ad7338361202e565b611af35760405162461bcd60e51b8152600401610b49906134b4565b611aff848484846125f3565b50505050565b601a80546113be90613593565b6000818152600260205260409020546060906001600160a01b0316611b795760405162461bcd60e51b815260206004820152601760248201527f54686973204e465420646f65736e27742065786973742e0000000000000000006044820152606401610b49565b601b5460ff16611c155760198054611b9090613593565b80601f0160208091040260200160405190810160405280929190818152602001828054611bbc90613593565b8015611c095780601f10611bde57610100808354040283529160200191611c09565b820191906000526020600020905b815481529060010190602001808311611bec57829003601f168201915b50505050509050919050565b6000611c1f612626565b90506000815111611c3f5760405180602001604052806000815250611c6d565b80611c49846123f0565b601a604051602001611c5d93929190613262565b6040516020818303038152906040525b9392505050565b6011546001600160a01b03163314611c9e5760405162461bcd60e51b8152600401610b499061347f565b6000611ca960085490565b90506103e8611cb9826001613505565b1115611cf25760405162461bcd60e51b815260206004820152600860248201526714dbdb19081bdd5d60c21b6044820152606401610b49565b61133682611790836001613505565b6011546001600160a01b03163314611d2b5760405162461bcd60e51b8152600401610b499061347f565b805161133690601a906020840190612e27565b6011546001600160a01b03163314611d685760405162461bcd60e51b8152600401610b499061347f565b601355565b6011546001600160a01b03163314611d975760405162461bcd60e51b8152600401610b499061347f565b6001600160a01b038116611dfc5760405162461bcd60e51b815260206004820152602660248201527f4f776e61626c653a206e6577206f776e657220697320746865207a65726f206160448201526564647265737360d01b6064820152608401610b49565b611e058161231d565b50565b80546001019055565b60006001600160e01b031982166380ac58cd60e01b1480611e4257506001600160e01b03198216635b5e139f60e01b145b80610a3c57506301ffc9a760e01b6001600160e01b0319831614610a3c565b600081815260046020526040902080546001600160a01b0319166001600160a01b0384169081179091558190611e968261133a565b6001600160a01b03167f8c5be1e5ebec7d5bd14f71427d1e84f3dd0314c0f7b2291e5b200ac8c7c3b92560405160405180910390a45050565b600a546001600160a01b0384166000908152600c602052604081205490918391611ef99086613531565b611f03919061351d565b611f0d9190613550565b949350505050565b80471015611f655760405162461bcd60e51b815260206004820152601d60248201527f416464726573733a20696e73756666696369656e742062616c616e63650000006044820152606401610b49565b6000826001600160a01b03168260405160006040518083038185875af1925050503d8060008114611fb2576040519150601f19603f3d011682016040523d82523d6000602084013e611fb7565b606091505b5050905080610c7f5760405162461bcd60e51b815260206004820152603a60248201527f416464726573733a20756e61626c6520746f2073656e642076616c75652c207260448201527f6563697069656e74206d617920686176652072657665727465640000000000006064820152608401610b49565b6000818152600260205260408120546001600160a01b03166120a75760405162461bcd60e51b815260206004820152602c60248201527f4552433732313a206f70657261746f7220717565727920666f72206e6f6e657860448201526b34b9ba32b73a103a37b5b2b760a11b6064820152608401610b49565b60006120b28361133a565b9050806001600160a01b0316846001600160a01b031614806120ed5750836001600160a01b03166120e284610ad4565b6001600160a01b0316145b80611f0d57506001600160a01b0380821660009081526005602090815260408083209388168352929052205460ff16949350505050565b826001600160a01b03166121378261133a565b6001600160a01b03161461219b5760405162461bcd60e51b815260206004820152602560248201527f4552433732313a207472616e736665722066726f6d20696e636f72726563742060448201526437bbb732b960d91b6064820152608401610b49565b6001600160a01b0382166121fd5760405162461bcd60e51b8152602060048201526024808201527f4552433732313a207472616e7366657220746f20746865207a65726f206164646044820152637265737360e01b6064820152608401610b49565b612208838383612635565b612213600082611e61565b6001600160a01b038316600090815260036020526040812080546001929061223c908490613550565b90915550506001600160a01b038216600090815260036020526040812080546001929061226a908490613505565b909155505060008181526002602052604080822080546001600160a01b0319166001600160a01b0386811691821790925591518493918716917fddf252ad1be2c89b69c2b068fc378daa952ba7f163c4a11628f55a4df523b3ef91a4505050565b604080516001600160a01b038416602482015260448082018490528251808303909101815260649091019091526020810180516001600160e01b031663a9059cbb60e01b179052610c7f9084906126ed565b601180546001600160a01b038381166001600160a01b0319831681179093556040519116919082907f8be0079c531659141344cd1fd0a4f28419497f9722a3daafe3b4186f6b6457e090600090a35050565b6000611f0d6123b7856040516bffffffffffffffffffffffff19606083901b166020820152600090603401604051602081830303815290604052805190602001209050919050565b8484808060200260200160405190810160405280939291908181526020018383602002808284376000920191909152506127bf92505050565b6060816124145750506040805180820190915260018152600360fc1b602082015290565b8160005b811561243e5780612428816135ce565b91506124379050600a8361351d565b9150612418565b60008167ffffffffffffffff81111561246757634e487b7160e01b600052604160045260246000fd5b6040519080825280601f01601f191660200182016040528015612491576020820181803683370190505b5090505b8415611f0d576124a6600183613550565b91506124b3600a866135e9565b6124be906030613505565b60f81b8183815181106124e157634e487b7160e01b600052603260045260246000fd5b60200101906001600160f81b031916908160001a905350612503600a8661351d565b9450612495565b6113368282604051806020016040528060008152506127ce565b816001600160a01b0316836001600160a01b031614156125865760405162461bcd60e51b815260206004820152601960248201527f4552433732313a20617070726f766520746f2063616c6c6572000000000000006044820152606401610b49565b6001600160a01b03838116600081815260056020908152604080832094871680845294825291829020805460ff191686151590811790915591519182527f17307eab39ab6107e8899845ad3d59bd9653f200f220920489ca2b5937696c31910160405180910390a3505050565b6125fe848484612124565b61260a84848484612801565b611aff5760405162461bcd60e51b8152600401610b499061339c565b606060188054610a5190613593565b6001600160a01b0383166126905761268b81600880546000838152600960205260408120829055600182018355919091527ff3f7a9fe364faab93b216da50a3214154f22a0a2b415b23a84c8169e8b636ee30155565b6126b3565b816001600160a01b0316836001600160a01b0316146126b3576126b3838261290e565b6001600160a01b0382166126ca57610c7f816129ab565b826001600160a01b0316826001600160a01b031614610c7f57610c7f8282612a84565b6000612742826040518060400160405280602081526020017f5361666545524332303a206c6f772d6c6576656c2063616c6c206661696c6564815250856001600160a01b0316612ac89092919063ffffffff16565b805190915015610c7f5780806020019051810190612760919061313e565b610c7f5760405162461bcd60e51b815260206004820152602a60248201527f5361666545524332303a204552433230206f7065726174696f6e20646964206e6044820152691bdd081cdd58d8d9595960b21b6064820152608401610b49565b6000611c6d8260135485612ad7565b6127d88383612aed565b6127e56000848484612801565b610c7f5760405162461bcd60e51b8152600401610b499061339c565b60006001600160a01b0384163b1561290357604051630a85bd0160e11b81526001600160a01b0385169063150b7a0290612845903390899088908890600401613324565b602060405180830381600087803b15801561285f57600080fd5b505af192505050801561288f575060408051601f3d908101601f1916820190925261288c9181019061318e565b60015b6128e9573d8080156128bd576040519150601f19603f3d011682016040523d82523d6000602084013e6128c2565b606091505b5080516128e15760405162461bcd60e51b8152600401610b499061339c565b805181602001fd5b6001600160e01b031916630a85bd0160e11b149050611f0d565b506001949350505050565b6000600161291b8461143f565b6129259190613550565b600083815260076020526040902054909150808214612978576001600160a01b03841660009081526006602090815260408083208584528252808320548484528184208190558352600790915290208190555b5060009182526007602090815260408084208490556001600160a01b039094168352600681528383209183525290812055565b6008546000906129bd90600190613550565b600083815260096020526040812054600880549394509092849081106129f357634e487b7160e01b600052603260045260246000fd5b906000526020600020015490508060088381548110612a2257634e487b7160e01b600052603260045260246000fd5b6000918252602080832090910192909255828152600990915260408082208490558582528120556008805480612a6857634e487b7160e01b600052603160045260246000fd5b6001900381819060005260206000200160009055905550505050565b6000612a8f8361143f565b6001600160a01b039093166000908152600660209081526040808320868452825280832085905593825260079052919091209190915550565b6060611f0d8484600085612c3b565b600082612ae48584612d6c565b14949350505050565b6001600160a01b038216612b435760405162461bcd60e51b815260206004820181905260248201527f4552433732313a206d696e7420746f20746865207a65726f20616464726573736044820152606401610b49565b6000818152600260205260409020546001600160a01b031615612ba85760405162461bcd60e51b815260206004820152601c60248201527f4552433732313a20746f6b656e20616c7265616479206d696e746564000000006044820152606401610b49565b612bb460008383612635565b6001600160a01b0382166000908152600360205260408120805460019290612bdd908490613505565b909155505060008181526002602052604080822080546001600160a01b0319166001600160a01b03861690811790915590518392907fddf252ad1be2c89b69c2b068fc378daa952ba7f163c4a11628f55a4df523b3ef908290a45050565b606082471015612c9c5760405162461bcd60e51b815260206004820152602660248201527f416464726573733a20696e73756666696369656e742062616c616e636520666f6044820152651c8818d85b1b60d21b6064820152608401610b49565b6001600160a01b0385163b612cf35760405162461bcd60e51b815260206004820152601d60248201527f416464726573733a2063616c6c20746f206e6f6e2d636f6e74726163740000006044820152606401610b49565b600080866001600160a01b03168587604051612d0f9190613246565b60006040518083038185875af1925050503d8060008114612d4c576040519150601f19603f3d011682016040523d82523d6000602084013e612d51565b606091505b5091509150612d61828286612dee565b979650505050505050565b600081815b8451811015612de6576000858281518110612d9c57634e487b7160e01b600052603260045260246000fd5b60200260200101519050808311612dc25760008381526020829052604090209250612dd3565b600081815260208490526040902092505b5080612dde816135ce565b915050612d71565b509392505050565b60608315612dfd575081611c6d565b825115612e0d5782518084602001fd5b8160405162461bcd60e51b8152600401610b499190613389565b828054612e3390613593565b90600052602060002090601f016020900481019282612e555760008555612e9b565b82601f10612e6e57805160ff1916838001178555612e9b565b82800160010185558215612e9b579182015b82811115612e9b578251825591602001919060010190612e80565b50612ea7929150612eab565b5090565b5b80821115612ea75760008155600101612eac565b600067ffffffffffffffff80841115612edb57612edb613629565b604051601f8501601f19908116603f01168101908282118183101715612f0357612f03613629565b81604052809350858152868686011115612f1c57600080fd5b858560208301376000602087830101525050509392505050565b600060208284031215612f47578081fd5b8135611c6d8161363f565b60008060408385031215612f64578081fd5b8235612f6f8161363f565b91506020830135612f7f8161363f565b809150509250929050565b600080600060608486031215612f9e578081fd5b8335612fa98161363f565b92506020840135612fb98161363f565b929592945050506040919091013590565b60008060008060808587031215612fdf578081fd5b8435612fea8161363f565b93506020850135612ffa8161363f565b925060408501359150606085013567ffffffffffffffff81111561301c578182fd5b8501601f8101871361302c578182fd5b61303b87823560208401612ec0565b91505092959194509250565b60008060006040848603121561305b578283fd5b83356130668161363f565b9250602084013567ffffffffffffffff80821115613082578384fd5b818601915086601f830112613095578384fd5b8135818111156130a3578485fd5b8760208260051b85010111156130b7578485fd5b6020830194508093505050509250925092565b600080604083850312156130dc578182fd5b82356130e78161363f565b91506020830135612f7f81613654565b60008060408385031215613109578182fd5b82356131148161363f565b946020939093013593505050565b600060208284031215613133578081fd5b8135611c6d81613654565b60006020828403121561314f578081fd5b8151611c6d81613654565b60006020828403121561316b578081fd5b5035919050565b600060208284031215613183578081fd5b8135611c6d81613662565b60006020828403121561319f578081fd5b8151611c6d81613662565b60008060408385031215612f64578182fd5b6000602082840312156131cd578081fd5b813567ffffffffffffffff8111156131e3578182fd5b8201601f810184136131f3578182fd5b611f0d84823560208401612ec0565b600060208284031215613213578081fd5b5051919050565b60008151808452613232816020860160208601613567565b601f01601f19169290920160200192915050565b60008251613258818460208701613567565b9190910192915050565b6000845160206132758285838a01613567565b8551918401916132888184848a01613567565b85549201918390600181811c90808316806132a457607f831692505b8583108114156132c257634e487b7160e01b88526022600452602488fd5b8080156132d657600181146132e757613313565b60ff19851688528388019550613313565b60008b815260209020895b8581101561330b5781548a8201529084019088016132f2565b505083880195505b50939b9a5050505050505050505050565b6001600160a01b03858116825284166020820152604081018390526080606082018190526000906133579083018461321a565b9695505050505050565b602081016005831061338357634e487b7160e01b600052602160045260246000fd5b91905290565b602081526000611c6d602083018461321a565b60208082526032908201527f4552433732313a207472616e7366657220746f206e6f6e20455243373231526560408201527131b2b4bb32b91034b6b83632b6b2b73a32b960711b606082015260800190565b60208082526026908201527f5061796d656e7453706c69747465723a206163636f756e7420686173206e6f2060408201526573686172657360d01b606082015260800190565b6020808252602b908201527f5061796d656e7453706c69747465723a206163636f756e74206973206e6f742060408201526a191d59481c185e5b595b9d60aa1b606082015260800190565b6020808252818101527f4f776e61626c653a2063616c6c6572206973206e6f7420746865206f776e6572604082015260600190565b60208082526031908201527f4552433732313a207472616e736665722063616c6c6572206973206e6f74206f6040820152701ddb995c881b9bdc88185c1c1c9bdd9959607a1b606082015260800190565b60008219821115613518576135186135fd565b500190565b60008261352c5761352c613613565b500490565b600081600019048311821515161561354b5761354b6135fd565b500290565b600082821015613562576135626135fd565b500390565b60005b8381101561358257818101518382015260200161356a565b83811115611aff5750506000910152565b600181811c908216806135a757607f821691505b602082108114156135c857634e487b7160e01b600052602260045260246000fd5b50919050565b60006000198214156135e2576135e26135fd565b5060010190565b6000826135f8576135f8613613565b500690565b634e487b7160e01b600052601160045260246000fd5b634e487b7160e01b600052601260045260246000fd5b634e487b7160e01b600052604160045260246000fd5b6001600160a01b0381168114611e0557600080fd5b8015158114611e0557600080fd5b6001600160e01b031981168114611e0557600080fdfea2646970667358221220d86d2ce1900a6a0f0b5804f08672d64d6bab01875dc07465a0915d2b0502f04464736f6c63430008040033",
  "linkReferences": {},
  "deployedLinkReferences": {}
}