{
  "_format": "hh-sol-artifact-1",
  "contractName": "ShinobiERC721",
  "sourceName": "contracts/Shinobi.sol",
  "abi": [
    {
      "inputs": [
        {
          "internalType": "string",
          "name": "_theBaseURI",
          "type": "string"
        },
        {
          "internalType": "string",
          "name": "_notRevealedURI",
          "type": "string"
        },
        {
          "internalType": "bytes32",
          "name": "_merkleRoot",
          "type": "bytes32"
        }
      ],
      "stateMutability": "nonpayable",
      "type": "constructor"
    },
    {
      "anonymous": false,
      "inputs": [
        {
          "indexed": true,
          "internalType": "address",
          "name": "owner",
          "type": "address"
        },
        {
          "indexed": true,
          "internalType": "address",
          "name": "approved",
          "type": "address"
        },
        {
          "indexed": true,
          "internalType": "uint256",
          "name": "tokenId",
          "type": "uint256"
        }
      ],
      "name": "Approval",
      "type": "event"
    },
    {
      "anonymous": false,
      "inputs": [
        {
          "indexed": true,
          "internalType": "address",
          "name": "owner",
          "type": "address"
        },
        {
          "indexed": true,
          "internalType": "address",
          "name": "operator",
          "type": "address"
        },
        {
          "indexed": false,
          "internalType": "bool",
          "name": "approved",
          "type": "bool"
        }
      ],
      "name": "ApprovalForAll",
      "type": "event"
    },
    {
      "anonymous": false,
      "inputs": [
        {
          "indexed": true,
          "internalType": "contract IERC20",
          "name": "token",
          "type": "address"
        },
        {
          "indexed": false,
          "internalType": "address",
          "name": "to",
          "type": "address"
        },
        {
          "indexed": false,
          "internalType": "uint256",
          "name": "amount",
          "type": "uint256"
        }
      ],
      "name": "ERC20PaymentReleased",
      "type": "event"
    },
    {
      "anonymous": false,
      "inputs": [
        {
          "indexed": true,
          "internalType": "address",
          "name": "previousOwner",
          "type": "address"
        },
        {
          "indexed": true,
          "internalType": "address",
          "name": "newOwner",
          "type": "address"
        }
      ],
      "name": "OwnershipTransferred",
      "type": "event"
    },
    {
      "anonymous": false,
      "inputs": [
        {
          "indexed": false,
          "internalType": "address",
          "name": "account",
          "type": "address"
        },
        {
          "indexed": false,
          "internalType": "uint256",
          "name": "shares",
          "type": "uint256"
        }
      ],
      "name": "PayeeAdded",
      "type": "event"
    },
    {
      "anonymous": false,
      "inputs": [
        {
          "indexed": false,
          "internalType": "address",
          "name": "from",
          "type": "address"
        },
        {
          "indexed": false,
          "internalType": "uint256",
          "name": "amount",
          "type": "uint256"
        }
      ],
      "name": "PaymentReceived",
      "type": "event"
    },
    {
      "anonymous": false,
      "inputs": [
        {
          "indexed": false,
          "internalType": "address",
          "name": "to",
          "type": "address"
        },
        {
          "indexed": false,
          "internalType": "uint256",
          "name": "amount",
          "type": "uint256"
        }
      ],
      "name": "PaymentReleased",
      "type": "event"
    },
    {
      "anonymous": false,
      "inputs": [
        {
          "indexed": true,
          "internalType": "address",
          "name": "from",
          "type": "address"
        },
        {
          "indexed": true,
          "internalType": "address",
          "name": "to",
          "type": "address"
        },
        {
          "indexed": true,
          "internalType": "uint256",
          "name": "tokenId",
          "type": "uint256"
        }
      ],
      "name": "Transfer",
      "type": "event"
    },
    {
      "inputs": [],
      "name": "MAX_SUPPLY",
      "outputs": [
        {
          "internalType": "uint256",
          "name": "",
          "type": "uint256"
        }
      ],
      "stateMutability": "view",
      "type": "function"
    },
    {
      "inputs": [
        {
          "internalType": "address",
          "name": "to",
          "type": "address"
        },
        {
          "internalType": "uint256",
          "name": "tokenId",
          "type": "uint256"
        }
      ],
      "name": "approve",
      "outputs": [],
      "stateMutability": "nonpayable",
      "type": "function"
    },
    {
      "inputs": [
        {
          "internalType": "address",
          "name": "owner",
          "type": "address"
        }
      ],
      "name": "balanceOf",
      "outputs": [
        {
          "internalType": "uint256",
          "name": "",
          "type": "uint256"
        }
      ],
      "stateMutability": "view",
      "type": "function"
    },
    {
      "inputs": [],
      "name": "baseExtension",
      "outputs": [
        {
          "internalType": "string",
          "name": "",
          "type": "string"
        }
      ],
      "stateMutability": "view",
      "type": "function"
    },
    {
      "inputs": [],
      "name": "baseURI",
      "outputs": [
        {
          "internalType": "string",
          "name": "",
          "type": "string"
        }
      ],
      "stateMutability": "view",
      "type": "function"
    },
    {
      "inputs": [
        {
          "internalType": "uint256",
          "name": "_maxMintAllowed",
          "type": "uint256"
        }
      ],
      "name": "changeMaxMintAllowed",
      "outputs": [],
      "stateMutability": "nonpayable",
      "type": "function"
    },
    {
      "inputs": [
        {
          "internalType": "bytes32",
          "name": "_newMerkleRoot",
          "type": "bytes32"
        }
      ],
      "name": "changeMerkleRoot",
      "outputs": [],
      "stateMutability": "nonpayable",
      "type": "function"
    },
    {
      "inputs": [
        {
          "internalType": "uint256",
          "name": "tokenId",
          "type": "uint256"
        }
      ],
      "name": "getApproved",
      "outputs": [
        {
          "internalType": "address",
          "name": "",
          "type": "address"
        }
      ],
      "stateMutability": "view",
      "type": "function"
    },
    {
      "inputs": [
        {
          "internalType": "address",
          "name": "_account",
          "type": "address"
        }
      ],
      "name": "gift",
      "outputs": [],
      "stateMutability": "nonpayable",
      "type": "function"
    },
    {
      "inputs": [
        {
          "internalType": "address",
          "name": "owner",
          "type": "address"
        },
        {
          "internalType": "address",
          "name": "operator",
          "type": "address"
        }
      ],
      "name": "isApprovedForAll",
      "outputs": [
        {
          "internalType": "bool",
          "name": "",
          "type": "bool"
        }
      ],
      "stateMutability": "view",
      "type": "function"
    },
    {
      "inputs": [],
      "name": "max_mint_allowed",
      "outputs": [
        {
          "internalType": "uint256",
          "name": "",
          "type": "uint256"
        }
      ],
      "stateMutability": "view",
      "type": "function"
    },
    {
      "inputs": [],
      "name": "merkleRoot",
      "outputs": [
        {
          "internalType": "bytes32",
          "name": "",
          "type": "bytes32"
        }
      ],
      "stateMutability": "view",
      "type": "function"
    },
    {
      "inputs": [],
      "name": "name",
      "outputs": [
        {
          "internalType": "string",
          "name": "",
          "type": "string"
        }
      ],
      "stateMutability": "view",
      "type": "function"
    },
    {
      "inputs": [],
      "name": "notRevealedURI",
      "outputs": [
        {
          "internalType": "string",
          "name": "",
          "type": "string"
        }
      ],
      "stateMutability": "view",
      "type": "function"
    },
    {
      "inputs": [],
      "name": "owner",
      "outputs": [
        {
          "internalType": "address",
          "name": "",
          "type": "address"
        }
      ],
      "stateMutability": "view",
      "type": "function"
    },
    {
      "inputs": [
        {
          "internalType": "uint256",
          "name": "tokenId",
          "type": "uint256"
        }
      ],
      "name": "ownerOf",
      "outputs": [
        {
          "internalType": "address",
          "name": "",
          "type": "address"
        }
      ],
      "stateMutability": "view",
      "type": "function"
    },
    {
      "inputs": [],
      "name": "paused",
      "outputs": [
        {
          "internalType": "bool",
          "name": "",
          "type": "bool"
        }
      ],
      "stateMutability": "view",
      "type": "function"
    },
    {
      "inputs": [
        {
          "internalType": "uint256",
          "name": "index",
          "type": "uint256"
        }
      ],
      "name": "payee",
      "outputs": [
        {
          "internalType": "address",
          "name": "",
          "type": "address"
        }
      ],
      "stateMutability": "view",
      "type": "function"
    },
    {
      "inputs": [
        {
          "internalType": "address",
          "name": "_account",
          "type": "address"
        },
        {
          "internalType": "uint256",
          "name": "_ammount",
          "type": "uint256"
        },
        {
          "internalType": "bytes32[]",
          "name": "_proof",
          "type": "bytes32[]"
        }
      ],
      "name": "privateSaleMint",
      "outputs": [],
      "stateMutability": "payable",
      "type": "function"
    },
    {
      "inputs": [],
      "name": "privateSalePrice",
      "outputs": [
        {
          "internalType": "uint256",
          "name": "",
          "type": "uint256"
        }
      ],
      "stateMutability": "view",
      "type": "function"
    },
    {
      "inputs": [
        {
          "internalType": "uint256",
          "name": "_ammount",
          "type": "uint256"
        }
      ],
      "name": "publicSaleMint",
      "outputs": [],
      "stateMutability": "payable",
      "type": "function"
    },
    {
      "inputs": [],
      "name": "publicSalePrice",
      "outputs": [
        {
          "internalType": "uint256",
          "name": "",
          "type": "uint256"
        }
      ],
      "stateMutability": "view",
      "type": "function"
    },
    {
      "inputs": [
        {
          "internalType": "address payable",
          "name": "account",
          "type": "address"
        }
      ],
      "name": "release",
      "outputs": [],
      "stateMutability": "nonpayable",
      "type": "function"
    },
    {
      "inputs": [
        {
          "internalType": "contract IERC20",
          "name": "token",
          "type": "address"
        },
        {
          "internalType": "address",
          "name": "account",
          "type": "address"
        }
      ],
      "name": "release",
      "outputs": [],
      "stateMutability": "nonpayable",
      "type": "function"
    },
    {
      "inputs": [
        {
          "internalType": "contract IERC20",
          "name": "token",
          "type": "address"
        },
        {
          "internalType": "address",
          "name": "account",
          "type": "address"
        }
      ],
      "name": "released",
      "outputs": [
        {
          "internalType": "uint256",
          "name": "",
          "type": "uint256"
        }
      ],
      "stateMutability": "view",
      "type": "function"
    },
    {
      "inputs": [
        {
          "internalType": "address",
          "name": "account",
          "type": "address"
        }
      ],
      "name": "released",
      "outputs": [
        {
          "internalType": "uint256",
          "name": "",
          "type": "uint256"
        }
      ],
      "stateMutability": "view",
      "type": "function"
    },
    {
      "inputs": [],
      "name": "renounceOwnership",
      "outputs": [],
      "stateMutability": "nonpayable",
      "type": "function"
    },
    {
      "inputs": [],
      "name": "reveal",
      "outputs": [],
      "stateMutability": "nonpayable",
      "type": "function"
    },
    {
      "inputs": [],
      "name": "revealed",
      "outputs": [
        {
          "internalType": "bool",
          "name": "",
          "type": "bool"
        }
      ],
      "stateMutability": "view",
      "type": "function"
    },
    {
      "inputs": [
        {
          "internalType": "address",
          "name": "from",
          "type": "address"
        },
        {
          "internalType": "address",
          "name": "to",
          "type": "address"
        },
        {
          "internalType": "uint256",
          "name": "tokenId",
          "type": "uint256"
        }
      ],
      "name": "safeTransferFrom",
      "outputs": [],
      "stateMutability": "nonpayable",
      "type": "function"
    },
    {
      "inputs": [
        {
          "internalType": "address",
          "name": "from",
          "type": "address"
        },
        {
          "internalType": "address",
          "name": "to",
          "type": "address"
        },
        {
          "internalType": "uint256",
          "name": "tokenId",
          "type": "uint256"
        },
        {
          "internalType": "bytes",
          "name": "_data",
          "type": "bytes"
        }
      ],
      "name": "safeTransferFrom",
      "outputs": [],
      "stateMutability": "nonpayable",
      "type": "function"
    },
    {
      "inputs": [],
      "name": "sellingStep",
      "outputs": [
        {
          "internalType": "enum ShinobiERC721.Steps",
          "name": "",
          "type": "uint8"
        }
      ],
      "stateMutability": "view",
      "type": "function"
    },
    {
      "inputs": [
        {
          "internalType": "address",
          "name": "operator",
          "type": "address"
        },
        {
          "internalType": "bool",
          "name": "approved",
          "type": "bool"
        }
      ],
      "name": "setApprovalForAll",
      "outputs": [],
      "stateMutability": "nonpayable",
      "type": "function"
    },
    {
      "inputs": [
        {
          "internalType": "string",
          "name": "_baseExtension",
          "type": "string"
        }
      ],
      "name": "setBaseExtension",
      "outputs": [],
      "stateMutability": "nonpayable",
      "type": "function"
    },
    {
      "inputs": [
        {
          "internalType": "string",
          "name": "_newBaseURI",
          "type": "string"
        }
      ],
      "name": "setBaseUri",
      "outputs": [],
      "stateMutability": "nonpayable",
      "type": "function"
    },
    {
      "inputs": [
        {
          "internalType": "string",
          "name": "_notRevealedURI",
          "type": "string"
        }
      ],
      "name": "setNotRevealURI",
      "outputs": [],
      "stateMutability": "nonpayable",
      "type": "function"
    },
    {
      "inputs": [
        {
          "internalType": "bool",
          "name": "_paused",
          "type": "bool"
        }
      ],
      "name": "setPaused",
      "outputs": [],
      "stateMutability": "nonpayable",
      "type": "function"
    },
    {
      "inputs": [
        {
          "internalType": "uint256",
          "name": "_privateSalePrice",
          "type": "uint256"
        }
      ],
      "name": "setPrivateSalePrice",
      "outputs": [],
      "stateMutability": "nonpayable",
      "type": "function"
    },
    {
      "inputs": [
        {
          "internalType": "uint256",
          "name": "_publicSalePrice",
          "type": "uint256"
        }
      ],
      "name": "setPublicSalePrice",
      "outputs": [],
      "stateMutability": "nonpayable",
      "type": "function"
    },
    {
      "inputs": [],
      "name": "setUpPrivateSale",
      "outputs": [],
      "stateMutability": "nonpayable",
      "type": "function"
    },
    {
      "inputs": [],
      "name": "setUpPublicSale",
      "outputs": [],
      "stateMutability": "nonpayable",
      "type": "function"
    },
    {
      "inputs": [
        {
          "internalType": "address",
          "name": "account",
          "type": "address"
        }
      ],
      "name": "shares",
      "outputs": [
        {
          "internalType": "uint256",
          "name": "",
          "type": "uint256"
        }
      ],
      "stateMutability": "view",
      "type": "function"
    },
    {
      "inputs": [
        {
          "internalType": "bytes4",
          "name": "interfaceId",
          "type": "bytes4"
        }
      ],
      "name": "supportsInterface",
      "outputs": [
        {
          "internalType": "bool",
          "name": "",
          "type": "bool"
        }
      ],
      "stateMutability": "view",
      "type": "function"
    },
    {
      "inputs": [],
      "name": "symbol",
      "outputs": [
        {
          "internalType": "string",
          "name": "",
          "type": "string"
        }
      ],
      "stateMutability": "view",
      "type": "function"
    },
    {
      "inputs": [
        {
          "internalType": "uint256",
          "name": "index",
          "type": "uint256"
        }
      ],
      "name": "tokenByIndex",
      "outputs": [
        {
          "internalType": "uint256",
          "name": "",
          "type": "uint256"
        }
      ],
      "stateMutability": "view",
      "type": "function"
    },
    {
      "inputs": [
        {
          "internalType": "address",
          "name": "owner",
          "type": "address"
        },
        {
          "internalType": "uint256",
          "name": "index",
          "type": "uint256"
        }
      ],
      "name": "tokenOfOwnerByIndex",
      "outputs": [
        {
          "internalType": "uint256",
          "name": "",
          "type": "uint256"
        }
      ],
      "stateMutability": "view",
      "type": "function"
    },
    {
      "inputs": [
        {
          "internalType": "uint256",
          "name": "_nftId",
          "type": "uint256"
        }
      ],
      "name": "tokenURI",
      "outputs": [
        {
          "internalType": "string",
          "name": "",
          "type": "string"
        }
      ],
      "stateMutability": "view",
      "type": "function"
    },
    {
      "inputs": [
        {
          "internalType": "contract IERC20",
          "name": "token",
          "type": "address"
        }
      ],
      "name": "totalReleased",
      "outputs": [
        {
          "internalType": "uint256",
          "name": "",
          "type": "uint256"
        }
      ],
      "stateMutability": "view",
      "type": "function"
    },
    {
      "inputs": [],
      "name": "totalReleased",
      "outputs": [
        {
          "internalType": "uint256",
          "name": "",
          "type": "uint256"
        }
      ],
      "stateMutability": "view",
      "type": "function"
    },
    {
      "inputs": [],
      "name": "totalShares",
      "outputs": [
        {
          "internalType": "uint256",
          "name": "",
          "type": "uint256"
        }
      ],
      "stateMutability": "view",
      "type": "function"
    },
    {
      "inputs": [],
      "name": "totalSupply",
      "outputs": [
        {
          "internalType": "uint256",
          "name": "",
          "type": "uint256"
        }
      ],
      "stateMutability": "view",
      "type": "function"
    },
    {
      "inputs": [
        {
          "internalType": "address",
          "name": "from",
          "type": "address"
        },
        {
          "internalType": "address",
          "name": "to",
          "type": "address"
        },
        {
          "internalType": "uint256",
          "name": "tokenId",
          "type": "uint256"
        }
      ],
      "name": "transferFrom",
      "outputs": [],
      "stateMutability": "nonpayable",
      "type": "function"
    },
    {
      "inputs": [
        {
          "internalType": "address",
          "name": "newOwner",
          "type": "address"
        }
      ],
      "name": "transferOwnership",
      "outputs": [],
      "stateMutability": "nonpayable",
      "type": "function"
    },
    {
      "stateMutability": "payable",
      "type": "receive"
    }
  ],
  "bytecode": "0x600260155568119e47f21381f4000060165568170a0f5040e504000060175560c06040526005608081905264173539b7b760d91b60a09081526200004791601a919062000741565b50601b805461ffff1916905560408051608081018252730e055e8db176e8d878982f7ee5fbb33d13f791e38152739317c997cf9c949e9b8a5194da9f2f73f067658c60208201527358c5bf4883a128fdda83e4b052f110c416d964159181019190915273401c0335d7302f3403f5a4711056e5224a250e666060820152620000d490601d906004620007d0565b5060408051608081018252600a8152601e6020820181905291810182905260608101829052620001079190600462000828565b503480156200011557600080fd5b506040516200416b3803806200416b833981016040819052620001389162000935565b601d8054806020026020016040519081016040528092919081815260200182805480156200019057602002820191906000526020600020905b81546001600160a01b0316815260019091019060200180831162000171575b5050505050601e805480602002602001604051908101604052809291908181526020018280548015620001e357602002820191906000526020600020905b815481526020019060010190808311620001ce575b505060408051808201825260078152665368696e6f626960c81b6020808301918252835180850190945260058452645348494e4f60d81b9084015281519195509193506200023692506000919062000741565b5080516200024c90600190602084019062000741565b5050508051825114620002c15760405162461bcd60e51b815260206004820152603260248201527f5061796d656e7453706c69747465723a2070617965657320616e6420736861726044820152710cae640d8cadccee8d040dad2e6dac2e8c6d60731b60648201526084015b60405180910390fd5b6000825111620003145760405162461bcd60e51b815260206004820152601a60248201527f5061796d656e7453706c69747465723a206e6f207061796565730000000000006044820152606401620002b8565b60005b82518110156200039857620003838382815181106200034657634e487b7160e01b600052603260045260246000fd5b60200260200101518383815181106200036f57634e487b7160e01b600052603260045260246000fd5b60200260200101516200042360201b60201c565b806200038f81620009fd565b91505062000317565b505050620003b5620003af6200061160201b60201c565b62000615565b6001601281905550620003d460146200066760201b62001e6a1760201c565b620003df3362000670565b601b805462ff00001916905582516200040090601890602086019062000741565b5081516200041690601990602085019062000741565b506013555062000a479050565b6001600160a01b038216620004905760405162461bcd60e51b815260206004820152602c60248201527f5061796d656e7453706c69747465723a206163636f756e74206973207468652060448201526b7a65726f206164647265737360a01b6064820152608401620002b8565b60008111620004e25760405162461bcd60e51b815260206004820152601d60248201527f5061796d656e7453706c69747465723a207368617265732061726520300000006044820152606401620002b8565b6001600160a01b0382166000908152600c6020526040902054156200055e5760405162461bcd60e51b815260206004820152602b60248201527f5061796d656e7453706c69747465723a206163636f756e7420616c726561647960448201526a206861732073686172657360a81b6064820152608401620002b8565b600e8054600181019091557fbb7b4a454dc3493923482f07822329ed19e8244eff582cc204f8554c3620c3fd0180546001600160a01b0319166001600160a01b0384169081179091556000908152600c60205260409020819055600a54620005c8908290620009a5565b600a55604080516001600160a01b0384168152602081018390527f40c340f65e17194d14ddddb073d3c9f888e3cb52b5aae0c6c7706b4fbc905fac910160405180910390a15050565b3390565b601180546001600160a01b038381166001600160a01b0319831681179093556040519116919082907f8be0079c531659141344cd1fd0a4f28419497f9722a3daafe3b4186f6b6457e090600090a35050565b80546001019055565b6011546001600160a01b03163314620006cc5760405162461bcd60e51b815260206004820181905260248201527f4f776e61626c653a2063616c6c6572206973206e6f7420746865206f776e65726044820152606401620002b8565b6001600160a01b038116620007335760405162461bcd60e51b815260206004820152602660248201527f4f776e61626c653a206e6577206f776e657220697320746865207a65726f206160448201526564647265737360d01b6064820152608401620002b8565b6200073e8162000615565b50565b8280546200074f90620009c0565b90600052602060002090601f016020900481019282620007735760008555620007be565b82601f106200078e57805160ff1916838001178555620007be565b82800160010185558215620007be579182015b82811115620007be578251825591602001919060010190620007a1565b50620007cc9291506200086b565b5090565b828054828255906000526020600020908101928215620007be579160200282015b82811115620007be57825182546001600160a01b0319166001600160a01b03909116178255602090920191600190910190620007f1565b828054828255906000526020600020908101928215620007be579160200282015b82811115620007be578251829060ff1690559160200191906001019062000849565b5b80821115620007cc57600081556001016200086c565b600082601f83011262000893578081fd5b81516001600160401b0380821115620008b057620008b062000a31565b604051601f8301601f19908116603f01168101908282118183101715620008db57620008db62000a31565b81604052838152602092508683858801011115620008f7578485fd5b8491505b838210156200091a5785820183015181830184015290820190620008fb565b838211156200092b57848385830101525b9695505050505050565b6000806000606084860312156200094a578283fd5b83516001600160401b038082111562000961578485fd5b6200096f8783880162000882565b9450602086015191508082111562000985578384fd5b50620009948682870162000882565b925050604084015190509250925092565b60008219821115620009bb57620009bb62000a1b565b500190565b600181811c90821680620009d557607f821691505b60208210811415620009f757634e487b7160e01b600052602260045260246000fd5b50919050565b600060001982141562000a145762000a1462000a1b565b5060010190565b634e487b7160e01b600052601160045260246000fd5b634e487b7160e01b600052604160045260246000fd5b6137148062000a576000396000f3fe60806040526004361061031e5760003560e01c80637672f9f6116101ab578063b88d4fde116100f7578063d79779b211610095578063e985e9c51161006f578063e985e9c514610978578063ebcea3db146109c1578063f2fde38b146109e1578063f560d41514610a0157600080fd5b8063d79779b21461090d578063da3ef23f14610943578063e33b7de31461096357600080fd5b8063c87b56dd116100d1578063c87b56dd1461086a578063cbccefb21461088a578063cbfc4bce146108b7578063ce7c2ac2146108d757600080fd5b8063b88d4fde1461081f578063ba0c60c91461083f578063c66828621461085557600080fd5b80639852595c11610164578063a0bcfc7f1161013e578063a0bcfc7f146107b7578063a22cb465146107d7578063a475b5dd146107f7578063b3ab66b01461080c57600080fd5b80639852595c146107565780639b6860c81461078c5780639d388af6146107a257600080fd5b80637672f9f6146106ae578063791a2519146106c35780637bc36e04146106e35780638b83209b146107035780638da5cb5b1461072357806395d89b411461074157600080fd5b806342842e0e1161026a5780635c975abb116102235780636c0360eb116101fd5780636c0360eb1461064f57806370a0823114610664578063715018a614610684578063722503801461069957600080fd5b80635c975abb146105fd5780636352211e1461061c578063641ae1541461063c57600080fd5b806342842e0e1461054357806348b75044146105635780634f6ccce71461058357806351830227146105a3578063549df2df146105bd5780635accac99146105dd57600080fd5b806319165587116102d75780632f745c59116102b15780632f745c59146104b257806332cb6b0c146104d25780633a98ef39146104e8578063406072a9146104fd57600080fd5b8063191655871461045c57806323b872dd1461047c5780632eb4a7ab1461049c57600080fd5b806301ffc9a71461036c57806306fdde03146103a1578063081812fc146103c3578063095ea7b3146103fb57806316c38b3c1461041d57806318160ddd1461043d57600080fd5b36610367577f6ef95f06320e7a25a04a175ca677b7052bdd97131872c2192525a629f51be77033604080516001600160a01b0390921682523460208301520160405180910390a1005b600080fd5b34801561037857600080fd5b5061038c6103873660046131d8565b610a17565b60405190151581526020015b60405180910390f35b3480156103ad57600080fd5b506103b6610a42565b60405161039891906133ef565b3480156103cf57600080fd5b506103e36103de3660046131c0565b610ad4565b6040516001600160a01b039091168152602001610398565b34801561040757600080fd5b5061041b6104163660046130d6565b610b6e565b005b34801561042957600080fd5b5061041b610438366004613188565b610c84565b34801561044957600080fd5b506008545b604051908152602001610398565b34801561046857600080fd5b5061041b610477366004612f98565b610cc8565b34801561048857600080fd5b5061041b610497366004612fec565b610df6565b3480156104a857600080fd5b5061044e60135481565b3480156104be57600080fd5b5061044e6104cd3660046130d6565b610e27565b3480156104de57600080fd5b5061044e6103e881565b3480156104f457600080fd5b50600a5461044e565b34801561050957600080fd5b5061044e610518366004613210565b6001600160a01b03918216600090815260106020908152604080832093909416825291909152205490565b34801561054f57600080fd5b5061041b61055e366004612fec565b610ebd565b34801561056f57600080fd5b5061041b61057e366004613210565b610ed8565b34801561058f57600080fd5b5061044e61059e3660046131c0565b6110c0565b3480156105af57600080fd5b50601b5461038c9060ff1681565b3480156105c957600080fd5b5061041b6105d83660046131c0565b611161565b3480156105e957600080fd5b5061041b6105f8366004613222565b611190565b34801561060957600080fd5b50601b5461038c90610100900460ff1681565b34801561062857600080fd5b506103e36106373660046131c0565b6111d1565b61041b61064a366004613101565b611248565b34801561065b57600080fd5b506103b66114e8565b34801561067057600080fd5b5061044e61067f366004612f98565b611576565b34801561069057600080fd5b5061041b6115fd565b3480156106a557600080fd5b506103b6611633565b3480156106ba57600080fd5b5061041b611640565b3480156106cf57600080fd5b5061041b6106de3660046131c0565b611685565b3480156106ef57600080fd5b5061041b6106fe3660046131c0565b6116b4565b34801561070f57600080fd5b506103e361071e3660046131c0565b6116e3565b34801561072f57600080fd5b506011546001600160a01b03166103e3565b34801561074d57600080fd5b506103b6611721565b34801561076257600080fd5b5061044e610771366004612f98565b6001600160a01b03166000908152600d602052604090205490565b34801561079857600080fd5b5061044e60175481565b3480156107ae57600080fd5b5061041b611730565b3480156107c357600080fd5b5061041b6107d2366004613222565b6117fb565b3480156107e357600080fd5b5061041b6107f23660046130a9565b611838565b34801561080357600080fd5b5061041b611843565b61041b61081a3660046131c0565b61187c565b34801561082b57600080fd5b5061041b61083a36600461302c565b611b2f565b34801561084b57600080fd5b5061044e60155481565b34801561086157600080fd5b506103b6611b67565b34801561087657600080fd5b506103b66108853660046131c0565b611b74565b34801561089657600080fd5b50601b546108aa9062010000900460ff1681565b60405161039891906133c7565b3480156108c357600080fd5b5061041b6108d2366004612f98565b611cd6565b3480156108e357600080fd5b5061044e6108f2366004612f98565b6001600160a01b03166000908152600c602052604090205490565b34801561091957600080fd5b5061044e610928366004612f98565b6001600160a01b03166000908152600f602052604090205490565b34801561094f57600080fd5b5061041b61095e366004613222565b611d63565b34801561096f57600080fd5b50600b5461044e565b34801561098457600080fd5b5061038c610993366004612fb4565b6001600160a01b03918216600090815260056020908152604080832093909416825291909152205460ff1690565b3480156109cd57600080fd5b5061041b6109dc3660046131c0565b611da0565b3480156109ed57600080fd5b5061041b6109fc366004612f98565b611dcf565b348015610a0d57600080fd5b5061044e60165481565b60006001600160e01b0319821663780e9d6360e01b1480610a3c5750610a3c82611e73565b92915050565b606060008054610a51906135f9565b80601f0160208091040260200160405190810160405280929190818152602001828054610a7d906135f9565b8015610aca5780601f10610a9f57610100808354040283529160200191610aca565b820191906000526020600020905b815481529060010190602001808311610aad57829003601f168201915b5050505050905090565b6000818152600260205260408120546001600160a01b0316610b525760405162461bcd60e51b815260206004820152602c60248201527f4552433732313a20617070726f76656420717565727920666f72206e6f6e657860448201526b34b9ba32b73a103a37b5b2b760a11b60648201526084015b60405180910390fd5b506000908152600460205260409020546001600160a01b031690565b6000610b79826111d1565b9050806001600160a01b0316836001600160a01b03161415610be75760405162461bcd60e51b815260206004820152602160248201527f4552433732313a20617070726f76616c20746f2063757272656e74206f776e656044820152603960f91b6064820152608401610b49565b336001600160a01b0382161480610c035750610c038133610993565b610c755760405162461bcd60e51b815260206004820152603860248201527f4552433732313a20617070726f76652063616c6c6572206973206e6f74206f7760448201527f6e6572206e6f7220617070726f76656420666f7220616c6c00000000000000006064820152608401610b49565b610c7f8383611ec3565b505050565b6011546001600160a01b03163314610cae5760405162461bcd60e51b8152600401610b49906134e5565b601b80549115156101000261ff0019909216919091179055565b6001600160a01b0381166000908152600c6020526040902054610cfd5760405162461bcd60e51b8152600401610b4990613454565b6000610d08600b5490565b610d12904761356b565b90506000610d3f8383610d3a866001600160a01b03166000908152600d602052604090205490565b611f31565b905080610d5e5760405162461bcd60e51b8152600401610b499061349a565b6001600160a01b0383166000908152600d602052604081208054839290610d8690849061356b565b9250508190555080600b6000828254610d9f919061356b565b90915550610daf90508382611f77565b604080516001600160a01b0385168152602081018390527fdf20fd1e76bc69d672e4814fafb2c449bba3a5369d8359adf9e05e6fde87b056910160405180910390a1505050565b610e003382612090565b610e1c5760405162461bcd60e51b8152600401610b499061351a565b610c7f838383612186565b6000610e3283611576565b8210610e945760405162461bcd60e51b815260206004820152602b60248201527f455243373231456e756d657261626c653a206f776e657220696e646578206f7560448201526a74206f6620626f756e647360a81b6064820152608401610b49565b506001600160a01b03919091166000908152600660209081526040808320938352929052205490565b610c7f83838360405180602001604052806000815250611b2f565b6001600160a01b0381166000908152600c6020526040902054610f0d5760405162461bcd60e51b8152600401610b4990613454565b6001600160a01b0382166000908152600f60205260408120546040516370a0823160e01b81523060048201526001600160a01b038516906370a082319060240160206040518083038186803b158015610f6557600080fd5b505afa158015610f79573d6000803e3d6000fd5b505050506040513d601f19601f82011682018060405250810190610f9d9190613268565b610fa7919061356b565b90506000610fe08383610d3a87876001600160a01b03918216600090815260106020908152604080832093909416825291909152205490565b905080610fff5760405162461bcd60e51b8152600401610b499061349a565b6001600160a01b0380851660009081526010602090815260408083209387168352929052908120805483929061103690849061356b565b90915550506001600160a01b0384166000908152600f60205260408120805483929061106390849061356b565b90915550611074905084848361232d565b604080516001600160a01b038581168252602082018490528616917f3be5b7a71e84ed12875d241991c70855ac5817d847039e17a9d895c1ceb0f18a910160405180910390a250505050565b60006110cb60085490565b821061112e5760405162461bcd60e51b815260206004820152602c60248201527f455243373231456e756d657261626c653a20676c6f62616c20696e646578206f60448201526b7574206f6620626f756e647360a01b6064820152608401610b49565b6008828154811061114f57634e487b7160e01b600052603260045260246000fd5b90600052602060002001549050919050565b6011546001600160a01b0316331461118b5760405162461bcd60e51b8152600401610b49906134e5565b601555565b6011546001600160a01b031633146111ba5760405162461bcd60e51b8152600401610b49906134e5565b80516111cd906019906020840190612e89565b5050565b6000818152600260205260408120546001600160a01b031680610a3c5760405162461bcd60e51b815260206004820152602960248201527f4552433732313a206f776e657220717565727920666f72206e6f6e657869737460448201526832b73a103a37b5b2b760b91b6064820152608401610b49565b6002601254141561129b5760405162461bcd60e51b815260206004820152601f60248201527f5265656e7472616e637947756172643a207265656e7472616e742063616c6c006044820152606401610b49565b60026012556001601b5462010000900460ff1660048111156112cd57634e487b7160e01b600052602160045260246000fd5b146113245760405162461bcd60e51b815260206004820152602160248201527f507269766174652073616c6520686173206e6f742073746172746564207965746044820152601760f91b6064820152608401610b49565b6015546001600160a01b0385166000908152601c6020526040902054106113a15760405162461bcd60e51b815260206004820152602b60248201527f596f752063616e206f6e6c79206765742032204e465473206f6e20746865207060448201526a7269766174652073616c6560a81b6064820152608401610b49565b6113ac84838361237f565b6113ef5760405162461bcd60e51b8152602060048201526014602482015273139bdd081bdb881d1a19481dda1a5d195b1a5cdd60621b6044820152606401610b49565b60155483111561144b5760405162461bcd60e51b815260206004820152602160248201527f596f752063616e2774206d696e74206d6f7265207468616e203220746f6b656e6044820152607360f81b6064820152608401610b49565b601654348111156114935760405162461bcd60e51b81526020600482015260126024820152712737ba1032b737bab3b43a10333ab732399760711b6044820152606401610b49565b6001600160a01b0385166000908152601c602052604081208054916114b783613634565b91905055506114ce856114c960145490565b612400565b6114dc601480546001019055565b50506001601255505050565b601880546114f5906135f9565b80601f0160208091040260200160405190810160405280929190818152602001828054611521906135f9565b801561156e5780601f106115435761010080835404028352916020019161156e565b820191906000526020600020905b81548152906001019060200180831161155157829003601f168201915b505050505081565b60006001600160a01b0382166115e15760405162461bcd60e51b815260206004820152602a60248201527f4552433732313a2062616c616e636520717565727920666f7220746865207a65604482015269726f206164647265737360b01b6064820152608401610b49565b506001600160a01b031660009081526003602052604090205490565b6011546001600160a01b031633146116275760405162461bcd60e51b8152600401610b49906134e5565b611631600061241a565b565b601980546114f5906135f9565b6011546001600160a01b0316331461166a5760405162461bcd60e51b8152600401610b49906134e5565b601b80546001919062ff0000191662010000835b0217905550565b6011546001600160a01b031633146116af5760405162461bcd60e51b8152600401610b49906134e5565b601755565b6011546001600160a01b031633146116de5760405162461bcd60e51b8152600401610b49906134e5565b601655565b6000600e828154811061170657634e487b7160e01b600052603260045260246000fd5b6000918252602090912001546001600160a01b031692915050565b606060018054610a51906135f9565b6011546001600160a01b0316331461175a5760405162461bcd60e51b8152600401610b49906134e5565b6001601b5462010000900460ff16600481111561178757634e487b7160e01b600052602160045260246000fd5b146117e35760405162461bcd60e51b815260206004820152602660248201527f46697273742074686520707269766174652073616c652c207468656e207468656044820152651039b0b6329760d11b6064820152608401610b49565b601b80546002919062ff00001916620100008361167e565b6011546001600160a01b031633146118255760405162461bcd60e51b8152600401610b49906134e5565b80516111cd906018906020840190612e89565b6111cd33838361246c565b6011546001600160a01b0316331461186d5760405162461bcd60e51b8152600401610b49906134e5565b601b805460ff19166001179055565b600260125414156118cf5760405162461bcd60e51b815260206004820152601f60248201527f5265656e7472616e637947756172643a207265656e7472616e742063616c6c006044820152606401610b49565b600260125560006118df60085490565b6017549091506003601b5462010000900460ff16600481111561191257634e487b7160e01b600052602160045260246000fd5b14156119575760405162461bcd60e51b815260206004820152601460248201527329b7b9393c961037379027232a39903632b33a1760611b6044820152606401610b49565b6002601b5462010000900460ff16600481111561198457634e487b7160e01b600052602160045260246000fd5b146119e15760405162461bcd60e51b815260206004820152602760248201527f536f7272792c207075626c69632073616c6520686173206e6f7420737461727460448201526632b2103cb2ba1760c91b6064820152608401610b49565b6119eb8382613597565b341015611a2f5760405162461bcd60e51b81526020600482015260126024820152712737ba1032b737bab3b43a10333ab732399760711b6044820152606401610b49565b6103e8611a3c848461356b565b1115611ab05760405162461bcd60e51b815260206004820152603860248201527f53616c6520697320616c6d6f737420646f6e6520616e6420776520646f6e277460448201527f206861766520656e6f75676874204e465473206c6566742e00000000000000006064820152608401610b49565b336000908152601c602052604081208054859290611acf90849061356b565b909155506103e89050611ae2848461356b565b1415611afa57601b805462ff00001916620300001790555b60015b838111611b2457611b12336114c9838661356b565b80611b1c81613634565b915050611afd565b505060016012555050565b611b393383612090565b611b555760405162461bcd60e51b8152600401610b499061351a565b611b618484848461253b565b50505050565b601a80546114f5906135f9565b6000818152600260205260409020546060906001600160a01b0316611bdb5760405162461bcd60e51b815260206004820152601760248201527f54686973204e465420646f65736e27742065786973742e0000000000000000006044820152606401610b49565b601b5460ff16611c775760198054611bf2906135f9565b80601f0160208091040260200160405190810160405280929190818152602001828054611c1e906135f9565b8015611c6b5780601f10611c4057610100808354040283529160200191611c6b565b820191906000526020600020905b815481529060010190602001808311611c4e57829003601f168201915b50505050509050919050565b6000611c8161256e565b90506000815111611ca15760405180602001604052806000815250611ccf565b80611cab8461257d565b601a604051602001611cbf939291906132c8565b6040516020818303038152906040525b9392505050565b6011546001600160a01b03163314611d005760405162461bcd60e51b8152600401610b49906134e5565b6000611d0b60085490565b90506103e8611d1b82600161356b565b1115611d545760405162461bcd60e51b815260206004820152600860248201526714dbdb19081bdd5d60c21b6044820152606401610b49565b6111cd826114c983600161356b565b6011546001600160a01b03163314611d8d5760405162461bcd60e51b8152600401610b49906134e5565b80516111cd90601a906020840190612e89565b6011546001600160a01b03163314611dca5760405162461bcd60e51b8152600401610b49906134e5565b601355565b6011546001600160a01b03163314611df95760405162461bcd60e51b8152600401610b49906134e5565b6001600160a01b038116611e5e5760405162461bcd60e51b815260206004820152602660248201527f4f776e61626c653a206e6577206f776e657220697320746865207a65726f206160448201526564647265737360d01b6064820152608401610b49565b611e678161241a565b50565b80546001019055565b60006001600160e01b031982166380ac58cd60e01b1480611ea457506001600160e01b03198216635b5e139f60e01b145b80610a3c57506301ffc9a760e01b6001600160e01b0319831614610a3c565b600081815260046020526040902080546001600160a01b0319166001600160a01b0384169081179091558190611ef8826111d1565b6001600160a01b03167f8c5be1e5ebec7d5bd14f71427d1e84f3dd0314c0f7b2291e5b200ac8c7c3b92560405160405180910390a45050565b600a546001600160a01b0384166000908152600c602052604081205490918391611f5b9086613597565b611f659190613583565b611f6f91906135b6565b949350505050565b80471015611fc75760405162461bcd60e51b815260206004820152601d60248201527f416464726573733a20696e73756666696369656e742062616c616e63650000006044820152606401610b49565b6000826001600160a01b03168260405160006040518083038185875af1925050503d8060008114612014576040519150601f19603f3d011682016040523d82523d6000602084013e612019565b606091505b5050905080610c7f5760405162461bcd60e51b815260206004820152603a60248201527f416464726573733a20756e61626c6520746f2073656e642076616c75652c207260448201527f6563697069656e74206d617920686176652072657665727465640000000000006064820152608401610b49565b6000818152600260205260408120546001600160a01b03166121095760405162461bcd60e51b815260206004820152602c60248201527f4552433732313a206f70657261746f7220717565727920666f72206e6f6e657860448201526b34b9ba32b73a103a37b5b2b760a11b6064820152608401610b49565b6000612114836111d1565b9050806001600160a01b0316846001600160a01b0316148061214f5750836001600160a01b031661214484610ad4565b6001600160a01b0316145b80611f6f57506001600160a01b0380821660009081526005602090815260408083209388168352929052205460ff16949350505050565b826001600160a01b0316612199826111d1565b6001600160a01b0316146121fd5760405162461bcd60e51b815260206004820152602560248201527f4552433732313a207472616e736665722066726f6d20696e636f72726563742060448201526437bbb732b960d91b6064820152608401610b49565b6001600160a01b03821661225f5760405162461bcd60e51b8152602060048201526024808201527f4552433732313a207472616e7366657220746f20746865207a65726f206164646044820152637265737360e01b6064820152608401610b49565b61226a838383612697565b612275600082611ec3565b6001600160a01b038316600090815260036020526040812080546001929061229e9084906135b6565b90915550506001600160a01b03821660009081526003602052604081208054600192906122cc90849061356b565b909155505060008181526002602052604080822080546001600160a01b0319166001600160a01b0386811691821790925591518493918716917fddf252ad1be2c89b69c2b068fc378daa952ba7f163c4a11628f55a4df523b3ef91a4505050565b604080516001600160a01b038416602482015260448082018490528251808303909101815260649091019091526020810180516001600160e01b031663a9059cbb60e01b179052610c7f90849061274f565b6000611f6f6123c7856040516bffffffffffffffffffffffff19606083901b166020820152600090603401604051602081830303815290604052805190602001209050919050565b84848080602002602001604051908101604052809392919081815260200183836020028082843760009201919091525061282192505050565b6111cd828260405180602001604052806000815250612830565b601180546001600160a01b038381166001600160a01b0319831681179093556040519116919082907f8be0079c531659141344cd1fd0a4f28419497f9722a3daafe3b4186f6b6457e090600090a35050565b816001600160a01b0316836001600160a01b031614156124ce5760405162461bcd60e51b815260206004820152601960248201527f4552433732313a20617070726f766520746f2063616c6c6572000000000000006044820152606401610b49565b6001600160a01b03838116600081815260056020908152604080832094871680845294825291829020805460ff191686151590811790915591519182527f17307eab39ab6107e8899845ad3d59bd9653f200f220920489ca2b5937696c31910160405180910390a3505050565b612546848484612186565b61255284848484612863565b611b615760405162461bcd60e51b8152600401610b4990613402565b606060188054610a51906135f9565b6060816125a15750506040805180820190915260018152600360fc1b602082015290565b8160005b81156125cb57806125b581613634565b91506125c49050600a83613583565b91506125a5565b60008167ffffffffffffffff8111156125f457634e487b7160e01b600052604160045260246000fd5b6040519080825280601f01601f19166020018201604052801561261e576020820181803683370190505b5090505b8415611f6f576126336001836135b6565b9150612640600a8661364f565b61264b90603061356b565b60f81b81838151811061266e57634e487b7160e01b600052603260045260246000fd5b60200101906001600160f81b031916908160001a905350612690600a86613583565b9450612622565b6001600160a01b0383166126f2576126ed81600880546000838152600960205260408120829055600182018355919091527ff3f7a9fe364faab93b216da50a3214154f22a0a2b415b23a84c8169e8b636ee30155565b612715565b816001600160a01b0316836001600160a01b031614612715576127158382612970565b6001600160a01b03821661272c57610c7f81612a0d565b826001600160a01b0316826001600160a01b031614610c7f57610c7f8282612ae6565b60006127a4826040518060400160405280602081526020017f5361666545524332303a206c6f772d6c6576656c2063616c6c206661696c6564815250856001600160a01b0316612b2a9092919063ffffffff16565b805190915015610c7f57808060200190518101906127c291906131a4565b610c7f5760405162461bcd60e51b815260206004820152602a60248201527f5361666545524332303a204552433230206f7065726174696f6e20646964206e6044820152691bdd081cdd58d8d9595960b21b6064820152608401610b49565b6000611ccf8260135485612b39565b61283a8383612b4f565b6128476000848484612863565b610c7f5760405162461bcd60e51b8152600401610b4990613402565b60006001600160a01b0384163b1561296557604051630a85bd0160e11b81526001600160a01b0385169063150b7a02906128a790339089908890889060040161338a565b602060405180830381600087803b1580156128c157600080fd5b505af19250505080156128f1575060408051601f3d908101601f191682019092526128ee918101906131f4565b60015b61294b573d80801561291f576040519150601f19603f3d011682016040523d82523d6000602084013e612924565b606091505b5080516129435760405162461bcd60e51b8152600401610b4990613402565b805181602001fd5b6001600160e01b031916630a85bd0160e11b149050611f6f565b506001949350505050565b6000600161297d84611576565b61298791906135b6565b6000838152600760205260409020549091508082146129da576001600160a01b03841660009081526006602090815260408083208584528252808320548484528184208190558352600790915290208190555b5060009182526007602090815260408084208490556001600160a01b039094168352600681528383209183525290812055565b600854600090612a1f906001906135b6565b60008381526009602052604081205460088054939450909284908110612a5557634e487b7160e01b600052603260045260246000fd5b906000526020600020015490508060088381548110612a8457634e487b7160e01b600052603260045260246000fd5b6000918252602080832090910192909255828152600990915260408082208490558582528120556008805480612aca57634e487b7160e01b600052603160045260246000fd5b6001900381819060005260206000200160009055905550505050565b6000612af183611576565b6001600160a01b039093166000908152600660209081526040808320868452825280832085905593825260079052919091209190915550565b6060611f6f8484600085612c9d565b600082612b468584612dce565b14949350505050565b6001600160a01b038216612ba55760405162461bcd60e51b815260206004820181905260248201527f4552433732313a206d696e7420746f20746865207a65726f20616464726573736044820152606401610b49565b6000818152600260205260409020546001600160a01b031615612c0a5760405162461bcd60e51b815260206004820152601c60248201527f4552433732313a20746f6b656e20616c7265616479206d696e746564000000006044820152606401610b49565b612c1660008383612697565b6001600160a01b0382166000908152600360205260408120805460019290612c3f90849061356b565b909155505060008181526002602052604080822080546001600160a01b0319166001600160a01b03861690811790915590518392907fddf252ad1be2c89b69c2b068fc378daa952ba7f163c4a11628f55a4df523b3ef908290a45050565b606082471015612cfe5760405162461bcd60e51b815260206004820152602660248201527f416464726573733a20696e73756666696369656e742062616c616e636520666f6044820152651c8818d85b1b60d21b6064820152608401610b49565b6001600160a01b0385163b612d555760405162461bcd60e51b815260206004820152601d60248201527f416464726573733a2063616c6c20746f206e6f6e2d636f6e74726163740000006044820152606401610b49565b600080866001600160a01b03168587604051612d7191906132ac565b60006040518083038185875af1925050503d8060008114612dae576040519150601f19603f3d011682016040523d82523d6000602084013e612db3565b606091505b5091509150612dc3828286612e50565b979650505050505050565b600081815b8451811015612e48576000858281518110612dfe57634e487b7160e01b600052603260045260246000fd5b60200260200101519050808311612e245760008381526020829052604090209250612e35565b600081815260208490526040902092505b5080612e4081613634565b915050612dd3565b509392505050565b60608315612e5f575081611ccf565b825115612e6f5782518084602001fd5b8160405162461bcd60e51b8152600401610b4991906133ef565b828054612e95906135f9565b90600052602060002090601f016020900481019282612eb75760008555612efd565b82601f10612ed057805160ff1916838001178555612efd565b82800160010185558215612efd579182015b82811115612efd578251825591602001919060010190612ee2565b50612f09929150612f0d565b5090565b5b80821115612f095760008155600101612f0e565b600067ffffffffffffffff80841115612f3d57612f3d61368f565b604051601f8501601f19908116603f01168101908282118183101715612f6557612f6561368f565b81604052809350858152868686011115612f7e57600080fd5b858560208301376000602087830101525050509392505050565b600060208284031215612fa9578081fd5b8135611ccf816136a5565b60008060408385031215612fc6578081fd5b8235612fd1816136a5565b91506020830135612fe1816136a5565b809150509250929050565b600080600060608486031215613000578081fd5b833561300b816136a5565b9250602084013561301b816136a5565b929592945050506040919091013590565b60008060008060808587031215613041578081fd5b843561304c816136a5565b9350602085013561305c816136a5565b925060408501359150606085013567ffffffffffffffff81111561307e578182fd5b8501601f8101871361308e578182fd5b61309d87823560208401612f22565b91505092959194509250565b600080604083850312156130bb578182fd5b82356130c6816136a5565b91506020830135612fe1816136ba565b600080604083850312156130e8578182fd5b82356130f3816136a5565b946020939093013593505050565b60008060008060608587031215613116578384fd5b8435613121816136a5565b935060208501359250604085013567ffffffffffffffff80821115613144578384fd5b818701915087601f830112613157578384fd5b813581811115613165578485fd5b8860208260051b8501011115613179578485fd5b95989497505060200194505050565b600060208284031215613199578081fd5b8135611ccf816136ba565b6000602082840312156131b5578081fd5b8151611ccf816136ba565b6000602082840312156131d1578081fd5b5035919050565b6000602082840312156131e9578081fd5b8135611ccf816136c8565b600060208284031215613205578081fd5b8151611ccf816136c8565b60008060408385031215612fc6578182fd5b600060208284031215613233578081fd5b813567ffffffffffffffff811115613249578182fd5b8201601f81018413613259578182fd5b611f6f84823560208401612f22565b600060208284031215613279578081fd5b5051919050565b600081518084526132988160208601602086016135cd565b601f01601f19169290920160200192915050565b600082516132be8184602087016135cd565b9190910192915050565b6000845160206132db8285838a016135cd565b8551918401916132ee8184848a016135cd565b85549201918390600181811c908083168061330a57607f831692505b85831081141561332857634e487b7160e01b88526022600452602488fd5b80801561333c576001811461334d57613379565b60ff19851688528388019550613379565b60008b815260209020895b858110156133715781548a820152908401908801613358565b505083880195505b50939b9a5050505050505050505050565b6001600160a01b03858116825284166020820152604081018390526080606082018190526000906133bd90830184613280565b9695505050505050565b60208101600583106133e957634e487b7160e01b600052602160045260246000fd5b91905290565b602081526000611ccf6020830184613280565b60208082526032908201527f4552433732313a207472616e7366657220746f206e6f6e20455243373231526560408201527131b2b4bb32b91034b6b83632b6b2b73a32b960711b606082015260800190565b60208082526026908201527f5061796d656e7453706c69747465723a206163636f756e7420686173206e6f2060408201526573686172657360d01b606082015260800190565b6020808252602b908201527f5061796d656e7453706c69747465723a206163636f756e74206973206e6f742060408201526a191d59481c185e5b595b9d60aa1b606082015260800190565b6020808252818101527f4f776e61626c653a2063616c6c6572206973206e6f7420746865206f776e6572604082015260600190565b60208082526031908201527f4552433732313a207472616e736665722063616c6c6572206973206e6f74206f6040820152701ddb995c881b9bdc88185c1c1c9bdd9959607a1b606082015260800190565b6000821982111561357e5761357e613663565b500190565b60008261359257613592613679565b500490565b60008160001904831182151516156135b1576135b1613663565b500290565b6000828210156135c8576135c8613663565b500390565b60005b838110156135e85781810151838201526020016135d0565b83811115611b615750506000910152565b600181811c9082168061360d57607f821691505b6020821081141561362e57634e487b7160e01b600052602260045260246000fd5b50919050565b600060001982141561364857613648613663565b5060010190565b60008261365e5761365e613679565b500690565b634e487b7160e01b600052601160045260246000fd5b634e487b7160e01b600052601260045260246000fd5b634e487b7160e01b600052604160045260246000fd5b6001600160a01b0381168114611e6757600080fd5b8015158114611e6757600080fd5b6001600160e01b031981168114611e6757600080fdfea2646970667358221220c0a9b176970239e5c1aeae083d45aba00554b0d47a5d2faaa13d89293c0a5f9964736f6c63430008040033",
  "linkReferences": {},
  "deployedLinkReferences": {}
}